{
  "_format": "hh-sol-artifact-1",
  "contractName": "AcademicManager",
  "sourceName": "contracts/AcademicManager.sol",
  "abi": [
    {
      "inputs": [],
      "stateMutability": "nonpayable",
      "type": "constructor"
    },
    {
      "inputs": [],
      "name": "OnlyOwner",
      "type": "error"
    },
    {
      "anonymous": false,
      "inputs": [
        {
          "indexed": true,
          "internalType": "uint256",
          "name": "courseId",
          "type": "uint256"
        },
        {
          "indexed": false,
          "internalType": "string",
          "name": "courseName",
          "type": "string"
        },
        {
          "indexed": false,
          "internalType": "string",
          "name": "courseDescription",
          "type": "string"
        },
        {
          "indexed": false,
          "internalType": "string",
          "name": "courseImageURI",
          "type": "string"
        }
      ],
      "name": "CourseCreated",
      "type": "event"
    },
    {
      "anonymous": false,
      "inputs": [
        {
          "indexed": true,
          "internalType": "uint256",
          "name": "courseId",
          "type": "uint256"
        },
        {
          "indexed": true,
          "internalType": "address",
          "name": "student",
          "type": "address"
        }
      ],
      "name": "StudentEnrolled",
      "type": "event"
    },
    {
      "inputs": [
        {
          "internalType": "address",
          "name": "_student",
          "type": "address"
        },
        {
          "internalType": "uint256",
          "name": "_courseId",
          "type": "uint256"
        },
        {
          "components": [
            {
              "internalType": "uint256",
              "name": "lessonId",
              "type": "uint256"
            },
            {
              "internalType": "string",
              "name": "lessonName",
              "type": "string"
            },
            {
              "internalType": "string",
              "name": "lessonContent",
              "type": "string"
            },
            {
              "internalType": "bool",
              "name": "mandatory",
              "type": "bool"
            },
            {
              "internalType": "uint256",
              "name": "minimumPassingScore",
              "type": "uint256"
            },
            {
              "internalType": "uint256",
              "name": "score",
              "type": "uint256"
            }
          ],
          "internalType": "struct AcademicManager.SchoolRecords[]",
          "name": "_scores",
          "type": "tuple[]"
        }
      ],
      "name": "assignScores",
      "outputs": [],
      "stateMutability": "nonpayable",
      "type": "function"
    },
    {
      "inputs": [
        {
          "internalType": "address",
          "name": "_student",
          "type": "address"
        },
        {
          "internalType": "uint256",
          "name": "_courseId",
          "type": "uint256"
        }
      ],
      "name": "checkCourseApproval",
      "outputs": [
        {
          "internalType": "bool",
          "name": "",
          "type": "bool"
        }
      ],
      "stateMutability": "view",
      "type": "function"
    },
    {
      "inputs": [
        {
          "internalType": "uint256",
          "name": "",
          "type": "uint256"
        }
      ],
      "name": "courses",
      "outputs": [
        {
          "internalType": "uint256",
          "name": "courseId",
          "type": "uint256"
        },
        {
          "internalType": "string",
          "name": "courseName",
          "type": "string"
        },
        {
          "internalType": "string",
          "name": "courseDescription",
          "type": "string"
        },
        {
          "internalType": "string",
          "name": "courseImageURI",
          "type": "string"
        }
      ],
      "stateMutability": "view",
      "type": "function"
    },
    {
      "inputs": [
        {
          "internalType": "string",
          "name": "_courseName",
          "type": "string"
        },
        {
          "internalType": "string",
          "name": "_courseDescription",
          "type": "string"
        },
        {
          "internalType": "string",
          "name": "_courseImageURI",
          "type": "string"
        },
        {
          "components": [
            {
              "internalType": "uint256",
              "name": "lessonId",
              "type": "uint256"
            },
            {
              "internalType": "string",
              "name": "lessonName",
              "type": "string"
            },
            {
              "internalType": "string",
              "name": "lessonContent",
              "type": "string"
            },
            {
              "internalType": "bool",
              "name": "mandatory",
              "type": "bool"
            },
            {
              "internalType": "uint256",
              "name": "minimumPassingScore",
              "type": "uint256"
            }
          ],
          "internalType": "struct Lesson[]",
          "name": "_lessons",
          "type": "tuple[]"
        }
      ],
      "name": "createCourse",
      "outputs": [],
      "stateMutability": "nonpayable",
      "type": "function"
    },
    {
      "inputs": [
        {
          "internalType": "uint256",
          "name": "_courseId",
          "type": "uint256"
        }
      ],
      "name": "enrollStudent",
      "outputs": [],
      "stateMutability": "nonpayable",
      "type": "function"
    },
    {
      "inputs": [
        {
          "internalType": "uint256",
          "name": "",
          "type": "uint256"
        },
        {
          "internalType": "address",
          "name": "",
          "type": "address"
        }
      ],
      "name": "enrollments",
      "outputs": [
        {
          "internalType": "bool",
          "name": "",
          "type": "bool"
        }
      ],
      "stateMutability": "view",
      "type": "function"
    },
    {
      "inputs": [
        {
          "internalType": "address",
          "name": "",
          "type": "address"
        },
        {
          "internalType": "uint256",
          "name": "",
          "type": "uint256"
        }
      ],
      "name": "enrollmentsByStudent",
      "outputs": [
        {
          "internalType": "uint256",
          "name": "",
          "type": "uint256"
        }
      ],
      "stateMutability": "view",
      "type": "function"
    },
    {
      "inputs": [],
      "name": "getAllCourses",
      "outputs": [
        {
          "components": [
            {
              "internalType": "uint256",
              "name": "courseId",
              "type": "uint256"
            },
            {
              "internalType": "string",
              "name": "courseName",
              "type": "string"
            },
            {
              "internalType": "string",
              "name": "courseDescription",
              "type": "string"
            },
            {
              "internalType": "string",
              "name": "courseImageURI",
              "type": "string"
            },
            {
              "components": [
                {
                  "internalType": "uint256",
                  "name": "lessonId",
                  "type": "uint256"
                },
                {
                  "internalType": "string",
                  "name": "lessonName",
                  "type": "string"
                },
                {
                  "internalType": "string",
                  "name": "lessonContent",
                  "type": "string"
                },
                {
                  "internalType": "bool",
                  "name": "mandatory",
                  "type": "bool"
                },
                {
                  "internalType": "uint256",
                  "name": "minimumPassingScore",
                  "type": "uint256"
                }
              ],
              "internalType": "struct Lesson[]",
              "name": "lessons",
              "type": "tuple[]"
            }
          ],
          "internalType": "struct Course[]",
          "name": "",
          "type": "tuple[]"
        }
      ],
      "stateMutability": "view",
      "type": "function"
    },
    {
      "inputs": [
        {
          "internalType": "uint256",
          "name": "_courseId",
          "type": "uint256"
        }
      ],
      "name": "getCourse",
      "outputs": [
        {
          "components": [
            {
              "internalType": "uint256",
              "name": "courseId",
              "type": "uint256"
            },
            {
              "internalType": "string",
              "name": "courseName",
              "type": "string"
            },
            {
              "internalType": "string",
              "name": "courseDescription",
              "type": "string"
            },
            {
              "internalType": "string",
              "name": "courseImageURI",
              "type": "string"
            },
            {
              "components": [
                {
                  "internalType": "uint256",
                  "name": "lessonId",
                  "type": "uint256"
                },
                {
                  "internalType": "string",
                  "name": "lessonName",
                  "type": "string"
                },
                {
                  "internalType": "string",
                  "name": "lessonContent",
                  "type": "string"
                },
                {
                  "internalType": "bool",
                  "name": "mandatory",
                  "type": "bool"
                },
                {
                  "internalType": "uint256",
                  "name": "minimumPassingScore",
                  "type": "uint256"
                }
              ],
              "internalType": "struct Lesson[]",
              "name": "lessons",
              "type": "tuple[]"
            }
          ],
          "internalType": "struct Course",
          "name": "",
          "type": "tuple"
        }
      ],
      "stateMutability": "view",
      "type": "function"
    },
    {
      "inputs": [
        {
          "internalType": "address",
          "name": "_student",
          "type": "address"
        }
      ],
      "name": "getCoursesByStudent",
      "outputs": [
        {
          "components": [
            {
              "internalType": "uint256",
              "name": "courseId",
              "type": "uint256"
            },
            {
              "internalType": "string",
              "name": "courseName",
              "type": "string"
            },
            {
              "internalType": "string",
              "name": "courseDescription",
              "type": "string"
            },
            {
              "internalType": "string",
              "name": "courseImageURI",
              "type": "string"
            },
            {
              "components": [
                {
                  "internalType": "uint256",
                  "name": "lessonId",
                  "type": "uint256"
                },
                {
                  "internalType": "string",
                  "name": "lessonName",
                  "type": "string"
                },
                {
                  "internalType": "string",
                  "name": "lessonContent",
                  "type": "string"
                },
                {
                  "internalType": "bool",
                  "name": "mandatory",
                  "type": "bool"
                },
                {
                  "internalType": "uint256",
                  "name": "minimumPassingScore",
                  "type": "uint256"
                }
              ],
              "internalType": "struct Lesson[]",
              "name": "lessons",
              "type": "tuple[]"
            }
          ],
          "internalType": "struct Course[]",
          "name": "",
          "type": "tuple[]"
        }
      ],
      "stateMutability": "view",
      "type": "function"
    },
    {
      "inputs": [],
      "name": "getOwner",
      "outputs": [
        {
          "internalType": "address",
          "name": "",
          "type": "address"
        }
      ],
      "stateMutability": "view",
      "type": "function"
    },
    {
      "inputs": [
        {
          "internalType": "address",
          "name": "_student",
          "type": "address"
        },
        {
          "internalType": "uint256",
          "name": "_courseId",
          "type": "uint256"
        }
      ],
      "name": "getStudentRecords",
      "outputs": [
        {
          "components": [
            {
              "internalType": "uint256",
              "name": "lessonId",
              "type": "uint256"
            },
            {
              "internalType": "string",
              "name": "lessonName",
              "type": "string"
            },
            {
              "internalType": "string",
              "name": "lessonContent",
              "type": "string"
            },
            {
              "internalType": "bool",
              "name": "mandatory",
              "type": "bool"
            },
            {
              "internalType": "uint256",
              "name": "minimumPassingScore",
              "type": "uint256"
            },
            {
              "internalType": "uint256",
              "name": "score",
              "type": "uint256"
            }
          ],
          "internalType": "struct AcademicManager.SchoolRecords[]",
          "name": "",
          "type": "tuple[]"
        }
      ],
      "stateMutability": "view",
      "type": "function"
    },
    {
      "inputs": [],
      "name": "nextCourseId",
      "outputs": [
        {
          "internalType": "uint256",
          "name": "",
          "type": "uint256"
        }
      ],
      "stateMutability": "view",
      "type": "function"
    },
    {
      "inputs": [],
      "name": "owner",
      "outputs": [
        {
          "internalType": "address",
          "name": "",
          "type": "address"
        }
      ],
      "stateMutability": "view",
      "type": "function"
    },
    {
      "inputs": [
        {
          "internalType": "address",
          "name": "",
          "type": "address"
        },
        {
          "internalType": "uint256",
          "name": "",
          "type": "uint256"
        },
        {
          "internalType": "uint256",
          "name": "",
          "type": "uint256"
        }
      ],
      "name": "studentRecordsByCourseId",
      "outputs": [
        {
          "internalType": "uint256",
          "name": "lessonId",
          "type": "uint256"
        },
        {
          "internalType": "string",
          "name": "lessonName",
          "type": "string"
        },
        {
          "internalType": "string",
          "name": "lessonContent",
          "type": "string"
        },
        {
          "internalType": "bool",
          "name": "mandatory",
          "type": "bool"
        },
        {
          "internalType": "uint256",
          "name": "minimumPassingScore",
          "type": "uint256"
        },
        {
          "internalType": "uint256",
          "name": "score",
          "type": "uint256"
        }
      ],
      "stateMutability": "view",
      "type": "function"
    }
  ],
  "bytecode": "0x608060405234801561001057600080fd5b50336000806101000a81548173ffffffffffffffffffffffffffffffffffffffff021916908373ffffffffffffffffffffffffffffffffffffffff160217905550613c50806100606000396000f3fe608060405234801561001057600080fd5b50600436106100f55760003560e01c806367330926116100975780638da5cb5b116100665780638da5cb5b146102b157806396f979d2146102cf578063dfb8040314610302578063e6c7cd2e14610332576100f5565b8063673309261461022957806371196f64146102455780637d83daf214610275578063893d20e814610293576100f5565b80631a52f25e116100d35780631a52f25e1461017d5780633ef1e238146101ad57806340337744146101dd578063482948d7146101f9576100f5565b806304e48bd1146100fa57806309b8ad05146101185780630b91e28d1461014d575b600080fd5b61010261034e565b60405161010f91906128e5565b60405180910390f35b610132600480360381019061012d91906129a5565b610780565b60405161014496959493929190612a60565b60405180910390f35b61016760048036038101906101629190612acf565b610903565b6040516101749190612b87565b60405180910390f35b61019760048036038101906101929190612ba9565b610ce6565b6040516101a49190612d3b565b60405180910390f35b6101c760048036038101906101c29190612ba9565b610ef3565b6040516101d49190612d5d565b60405180910390f35b6101f760048036038101906101f29190612acf565b610f24565b005b610213600480360381019061020e9190612d78565b6114b1565b60405161022091906128e5565b60405180910390f35b610243600480360381019061023e91906130ba565b611993565b005b61025f600480360381019061025a9190612ba9565b611c3d565b60405161026c9190613191565b60405180910390f35b61027d611fe6565b60405161028a9190612d5d565b60405180910390f35b61029b611fec565b6040516102a891906131bb565b60405180910390f35b6102b9612015565b6040516102c691906131bb565b60405180910390f35b6102e960048036038101906102e49190612acf565b612039565b6040516102f994939291906131d6565b60405180910390f35b61031c60048036038101906103179190613230565b612201565b6040516103299190613191565b60405180910390f35b61034c60048036038101906103479190613429565b612230565b005b6060600060015467ffffffffffffffff81111561036e5761036d612daf565b5b6040519080825280602002602001820160405280156103a757816020015b610394612566565b81526020019060019003908161038c5790505b50905060005b60015481101561077857600260008281526020019081526020016000206040518060a0016040529081600082015481526020016001820180546103ef906134c7565b80601f016020809104026020016040519081016040528092919081815260200182805461041b906134c7565b80156104685780601f1061043d57610100808354040283529160200191610468565b820191906000526020600020905b81548152906001019060200180831161044b57829003601f168201915b50505050508152602001600282018054610481906134c7565b80601f01602080910402602001604051908101604052809291908181526020018280546104ad906134c7565b80156104fa5780601f106104cf576101008083540402835291602001916104fa565b820191906000526020600020905b8154815290600101906020018083116104dd57829003601f168201915b50505050508152602001600382018054610513906134c7565b80601f016020809104026020016040519081016040528092919081815260200182805461053f906134c7565b801561058c5780601f106105615761010080835404028352916020019161058c565b820191906000526020600020905b81548152906001019060200180831161056f57829003601f168201915b5050505050815260200160048201805480602002602001604051908101604052809291908181526020016000905b8282101561073f57838290600052602060002090600502016040518060a0016040529081600082015481526020016001820180546105f7906134c7565b80601f0160208091040260200160405190810160405280929190818152602001828054610623906134c7565b80156106705780601f1061064557610100808354040283529160200191610670565b820191906000526020600020905b81548152906001019060200180831161065357829003601f168201915b50505050508152602001600282018054610689906134c7565b80601f01602080910402602001604051908101604052809291908181526020018280546106b5906134c7565b80156107025780601f106106d757610100808354040283529160200191610702565b820191906000526020600020905b8154815290600101906020018083116106e557829003601f168201915b505050505081526020016003820160009054906101000a900460ff16151515158152602001600482015481525050815260200190600101906105ba565b505050508152505082828151811061075a576107596134f8565b5b6020026020010181905250808061077090613556565b9150506103ad565b508091505090565b600560205282600052604060002060205281600052604060002081815481106107a857600080fd5b906000526020600020906006020160009250925050508060000154908060010180546107d3906134c7565b80601f01602080910402602001604051908101604052809291908181526020018280546107ff906134c7565b801561084c5780601f106108215761010080835404028352916020019161084c565b820191906000526020600020905b81548152906001019060200180831161082f57829003601f168201915b505050505090806002018054610861906134c7565b80601f016020809104026020016040519081016040528092919081815260200182805461088d906134c7565b80156108da5780601f106108af576101008083540402835291602001916108da565b820191906000526020600020905b8154815290600101906020018083116108bd57829003601f168201915b5050505050908060030160009054906101000a900460ff16908060040154908060050154905086565b61090b612566565b600154821061094f576040517f08c379a0000000000000000000000000000000000000000000000000000000008152600401610946906135ea565b60405180910390fd5b600260008381526020019081526020016000206040518060a001604052908160008201548152602001600182018054610987906134c7565b80601f01602080910402602001604051908101604052809291908181526020018280546109b3906134c7565b8015610a005780601f106109d557610100808354040283529160200191610a00565b820191906000526020600020905b8154815290600101906020018083116109e357829003601f168201915b50505050508152602001600282018054610a19906134c7565b80601f0160208091040260200160405190810160405280929190818152602001828054610a45906134c7565b8015610a925780601f10610a6757610100808354040283529160200191610a92565b820191906000526020600020905b815481529060010190602001808311610a7557829003601f168201915b50505050508152602001600382018054610aab906134c7565b80601f0160208091040260200160405190810160405280929190818152602001828054610ad7906134c7565b8015610b245780601f10610af957610100808354040283529160200191610b24565b820191906000526020600020905b815481529060010190602001808311610b0757829003601f168201915b5050505050815260200160048201805480602002602001604051908101604052809291908181526020016000905b82821015610cd757838290600052602060002090600502016040518060a001604052908160008201548152602001600182018054610b8f906134c7565b80601f0160208091040260200160405190810160405280929190818152602001828054610bbb906134c7565b8015610c085780601f10610bdd57610100808354040283529160200191610c08565b820191906000526020600020905b815481529060010190602001808311610beb57829003601f168201915b50505050508152602001600282018054610c21906134c7565b80601f0160208091040260200160405190810160405280929190818152602001828054610c4d906134c7565b8015610c9a5780601f10610c6f57610100808354040283529160200191610c9a565b820191906000526020600020905b815481529060010190602001808311610c7d57829003601f168201915b505050505081526020016003820160009054906101000a900460ff1615151515815260200160048201548152505081526020019060010190610b52565b50505050815250509050919050565b6060600560008473ffffffffffffffffffffffffffffffffffffffff1673ffffffffffffffffffffffffffffffffffffffff1681526020019081526020016000206000838152602001908152602001600020805480602002602001604051908101604052809291908181526020016000905b82821015610ee757838290600052602060002090600602016040518060c001604052908160008201548152602001600182018054610d95906134c7565b80601f0160208091040260200160405190810160405280929190818152602001828054610dc1906134c7565b8015610e0e5780601f10610de357610100808354040283529160200191610e0e565b820191906000526020600020905b815481529060010190602001808311610df157829003601f168201915b50505050508152602001600282018054610e27906134c7565b80601f0160208091040260200160405190810160405280929190818152602001828054610e53906134c7565b8015610ea05780601f10610e7557610100808354040283529160200191610ea0565b820191906000526020600020905b815481529060010190602001808311610e8357829003601f168201915b505050505081526020016003820160009054906101000a900460ff161515151581526020016004820154815260200160058201548152505081526020019060010190610d58565b50505050905092915050565b60046020528160005260406000208181548110610f0f57600080fd5b90600052602060002001600091509150505481565b6001548110610f68576040517f08c379a0000000000000000000000000000000000000000000000000000000008152600401610f5f906135ea565b60405180910390fd5b6003600082815260200190815260200160002060003373ffffffffffffffffffffffffffffffffffffffff1673ffffffffffffffffffffffffffffffffffffffff16815260200190815260200160002060009054906101000a900460ff1615611006576040517f08c379a0000000000000000000000000000000000000000000000000000000008152600401610ffd9061367c565b60405180910390fd5b60016003600083815260200190815260200160002060003373ffffffffffffffffffffffffffffffffffffffff1673ffffffffffffffffffffffffffffffffffffffff16815260200190815260200160002060006101000a81548160ff021916908315150217905550600460003373ffffffffffffffffffffffffffffffffffffffff1673ffffffffffffffffffffffffffffffffffffffff168152602001908152602001600020819080600181540180825580915050600190039060005260206000200160009091909190915055600060026000838152602001908152602001600020600401805480602002602001604051908101604052809291908181526020016000905b8282101561129257838290600052602060002090600502016040518060a00160405290816000820154815260200160018201805461114a906134c7565b80601f0160208091040260200160405190810160405280929190818152602001828054611176906134c7565b80156111c35780601f10611198576101008083540402835291602001916111c3565b820191906000526020600020905b8154815290600101906020018083116111a657829003601f168201915b505050505081526020016002820180546111dc906134c7565b80601f0160208091040260200160405190810160405280929190818152602001828054611208906134c7565b80156112555780601f1061122a57610100808354040283529160200191611255565b820191906000526020600020905b81548152906001019060200180831161123857829003601f168201915b505050505081526020016003820160009054906101000a900460ff161515151581526020016004820154815250508152602001906001019061110d565b5050505090506000600560003373ffffffffffffffffffffffffffffffffffffffff1673ffffffffffffffffffffffffffffffffffffffff1681526020019081526020016000206000848152602001908152602001600020905060005b825181101561146757816040518060c00160405280858481518110611317576113166134f8565b5b602002602001015160000151815260200185848151811061133b5761133a6134f8565b5b602002602001015160200151815260200185848151811061135f5761135e6134f8565b5b6020026020010151604001518152602001858481518110611383576113826134f8565b5b602002602001015160600151151581526020018584815181106113a9576113a86134f8565b5b6020026020010151608001518152602001600081525090806001815401808255809150506001900390600052602060002090600602016000909190919091506000820151816000015560208201518160010190816114079190613848565b50604082015181600201908161141d9190613848565b5060608201518160030160006101000a81548160ff0219169083151502179055506080820151816004015560a082015181600501555050808061145f90613556565b9150506112ef565b503373ffffffffffffffffffffffffffffffffffffffff16837f0729bef4a0569fb1fa09db94121e32114ae18918357d5324c3dd31440b83149e60405160405180910390a3505050565b60606000600460008473ffffffffffffffffffffffffffffffffffffffff1673ffffffffffffffffffffffffffffffffffffffff16815260200190815260200160002080548060200260200160405190810160405280929190818152602001828054801561153e57602002820191906000526020600020905b81548152602001906001019080831161152a575b505050505090506000815167ffffffffffffffff81111561156257611561612daf565b5b60405190808252806020026020018201604052801561159b57816020015b611588612566565b8152602001906001900390816115805790505b50905060005b8251811015611988576000600260008584815181106115c3576115c26134f8565b5b6020026020010151815260200190815260200160002090506040518060a00160405280826000015481526020018260010180546115ff906134c7565b80601f016020809104026020016040519081016040528092919081815260200182805461162b906134c7565b80156116785780601f1061164d57610100808354040283529160200191611678565b820191906000526020600020905b81548152906001019060200180831161165b57829003601f168201915b50505050508152602001826002018054611691906134c7565b80601f01602080910402602001604051908101604052809291908181526020018280546116bd906134c7565b801561170a5780601f106116df5761010080835404028352916020019161170a565b820191906000526020600020905b8154815290600101906020018083116116ed57829003601f168201915b50505050508152602001826003018054611723906134c7565b80601f016020809104026020016040519081016040528092919081815260200182805461174f906134c7565b801561179c5780601f106117715761010080835404028352916020019161179c565b820191906000526020600020905b81548152906001019060200180831161177f57829003601f168201915b5050505050815260200182600401805480602002602001604051908101604052809291908181526020016000905b8282101561194f57838290600052602060002090600502016040518060a001604052908160008201548152602001600182018054611807906134c7565b80601f0160208091040260200160405190810160405280929190818152602001828054611833906134c7565b80156118805780601f1061185557610100808354040283529160200191611880565b820191906000526020600020905b81548152906001019060200180831161186357829003601f168201915b50505050508152602001600282018054611899906134c7565b80601f01602080910402602001604051908101604052809291908181526020018280546118c5906134c7565b80156119125780601f106118e757610100808354040283529160200191611912565b820191906000526020600020905b8154815290600101906020018083116118f557829003601f168201915b505050505081526020016003820160009054906101000a900460ff16151515158152602001600482015481525050815260200190600101906117ca565b50505050815250838381518110611969576119686134f8565b5b602002602001018190525050808061198090613556565b9150506115a1565b508092505050919050565b3373ffffffffffffffffffffffffffffffffffffffff1660008054906101000a900473ffffffffffffffffffffffffffffffffffffffff1673ffffffffffffffffffffffffffffffffffffffff1614611a18576040517f5fc483c500000000000000000000000000000000000000000000000000000000815260040160405180910390fd5b60006002600060015481526020019081526020016000209050600154816000018190555084816001019081611a4d9190613848565b5083816002019081611a5f9190613848565b5082816003019081611a719190613848565b5060005b8251811015611bdf57816004016040518060a00160405280858481518110611aa057611a9f6134f8565b5b6020026020010151600001518152602001858481518110611ac457611ac36134f8565b5b6020026020010151602001518152602001858481518110611ae857611ae76134f8565b5b6020026020010151604001518152602001858481518110611b0c57611b0b6134f8565b5b60200260200101516060015115158152602001858481518110611b3257611b316134f8565b5b6020026020010151608001518152509080600181540180825580915050600190039060005260206000209060050201600090919091909150600082015181600001556020820151816001019081611b899190613848565b506040820151816002019081611b9f9190613848565b5060608201518160030160006101000a81548160ff0219169083151502179055506080820151816004015550508080611bd790613556565b915050611a75565b506001547fb0914036b6ff77078b9c762477065f9e15f0688e221af4eecaf7c2effc56b4d8868686604051611c169392919061391a565b60405180910390a260016000815480929190611c3190613556565b91905055505050505050565b60006001548210611c83576040517f08c379a0000000000000000000000000000000000000000000000000000000008152600401611c7a906135ea565b60405180910390fd5b6003600083815260200190815260200160002060008473ffffffffffffffffffffffffffffffffffffffff1673ffffffffffffffffffffffffffffffffffffffff16815260200190815260200160002060009054906101000a900460ff16611d20576040517f08c379a0000000000000000000000000000000000000000000000000000000008152600401611d17906139d8565b60405180910390fd5b6000600560008573ffffffffffffffffffffffffffffffffffffffff1673ffffffffffffffffffffffffffffffffffffffff1681526020019081526020016000206000848152602001908152602001600020805480602002602001604051908101604052809291908181526020016000905b82821015611f2157838290600052602060002090600602016040518060c001604052908160008201548152602001600182018054611dcf906134c7565b80601f0160208091040260200160405190810160405280929190818152602001828054611dfb906134c7565b8015611e485780601f10611e1d57610100808354040283529160200191611e48565b820191906000526020600020905b815481529060010190602001808311611e2b57829003601f168201915b50505050508152602001600282018054611e61906134c7565b80601f0160208091040260200160405190810160405280929190818152602001828054611e8d906134c7565b8015611eda5780601f10611eaf57610100808354040283529160200191611eda565b820191906000526020600020905b815481529060010190602001808311611ebd57829003601f168201915b505050505081526020016003820160009054906101000a900460ff161515151581526020016004820154815260200160058201548152505081526020019060010190611d92565b5050505090506000815111611f6b576040517f08c379a0000000000000000000000000000000000000000000000000000000008152600401611f6290613a90565b60405180910390fd5b60005b8151811015611fd957818181518110611f8a57611f896134f8565b5b602002602001015160800151828281518110611fa957611fa86134f8565b5b602002602001015160a001511015611fc657600092505050611fe0565b8080611fd190613556565b915050611f6e565b5060019150505b92915050565b60015481565b60008060009054906101000a900473ffffffffffffffffffffffffffffffffffffffff16905090565b60008054906101000a900473ffffffffffffffffffffffffffffffffffffffff1681565b6002602052806000526040600020600091509050806000015490806001018054612062906134c7565b80601f016020809104026020016040519081016040528092919081815260200182805461208e906134c7565b80156120db5780601f106120b0576101008083540402835291602001916120db565b820191906000526020600020905b8154815290600101906020018083116120be57829003601f168201915b5050505050908060020180546120f0906134c7565b80601f016020809104026020016040519081016040528092919081815260200182805461211c906134c7565b80156121695780601f1061213e57610100808354040283529160200191612169565b820191906000526020600020905b81548152906001019060200180831161214c57829003601f168201915b50505050509080600301805461217e906134c7565b80601f01602080910402602001604051908101604052809291908181526020018280546121aa906134c7565b80156121f75780601f106121cc576101008083540402835291602001916121f7565b820191906000526020600020905b8154815290600101906020018083116121da57829003601f168201915b5050505050905084565b60036020528160005260406000206020528060005260406000206000915091509054906101000a900460ff1681565b3373ffffffffffffffffffffffffffffffffffffffff1660008054906101000a900473ffffffffffffffffffffffffffffffffffffffff1673ffffffffffffffffffffffffffffffffffffffff16146122b5576040517f5fc483c500000000000000000000000000000000000000000000000000000000815260040160405180910390fd5b60008151116122f9576040517f08c379a00000000000000000000000000000000000000000000000000000000081526004016122f090613afc565b60405180910390fd5b600154821061233d576040517f08c379a0000000000000000000000000000000000000000000000000000000008152600401612334906135ea565b60405180910390fd5b6003600083815260200190815260200160002060008473ffffffffffffffffffffffffffffffffffffffff1673ffffffffffffffffffffffffffffffffffffffff16815260200190815260200160002060009054906101000a900460ff166123da576040517f08c379a00000000000000000000000000000000000000000000000000000000081526004016123d1906139d8565b60405180910390fd5b6000600560008573ffffffffffffffffffffffffffffffffffffffff1673ffffffffffffffffffffffffffffffffffffffff168152602001908152602001600020600084815260200190815260200160002090508080549050825114612475576040517f08c379a000000000000000000000000000000000000000000000000000000000815260040161246c90613b8e565b60405180910390fd5b60005b825181101561255f57828181518110612494576124936134f8565b5b6020026020010151600001518282815481106124b3576124b26134f8565b5b90600052602060002090600602016000015414612505576040517f08c379a00000000000000000000000000000000000000000000000000000000081526004016124fc90613bfa565b60405180910390fd5b828181518110612518576125176134f8565b5b602002602001015160a00151828281548110612537576125366134f8565b5b906000526020600020906006020160050181905550808061255790613556565b915050612478565b5050505050565b6040518060a0016040528060008152602001606081526020016060815260200160608152602001606081525090565b600081519050919050565b600082825260208201905092915050565b6000819050602082019050919050565b6000819050919050565b6125d4816125c1565b82525050565b600081519050919050565b600082825260208201905092915050565b60005b838110156126145780820151818401526020810190506125f9565b60008484015250505050565b6000601f19601f8301169050919050565b600061263c826125da565b61264681856125e5565b93506126568185602086016125f6565b61265f81612620565b840191505092915050565b600081519050919050565b600082825260208201905092915050565b6000819050602082019050919050565b60008115159050919050565b6126ab81612696565b82525050565b600060a0830160008301516126c960008601826125cb565b50602083015184820360208601526126e18282612631565b915050604083015184820360408601526126fb8282612631565b915050606083015161271060608601826126a2565b50608083015161272360808601826125cb565b508091505092915050565b600061273a83836126b1565b905092915050565b6000602082019050919050565b600061275a8261266a565b6127648185612675565b93508360208202850161277685612686565b8060005b858110156127b25784840389528151612793858261272e565b945061279e83612742565b925060208a0199505060018101905061277a565b50829750879550505050505092915050565b600060a0830160008301516127dc60008601826125cb565b50602083015184820360208601526127f48282612631565b9150506040830151848203604086015261280e8282612631565b915050606083015184820360608601526128288282612631565b91505060808301518482036080860152612842828261274f565b9150508091505092915050565b600061285b83836127c4565b905092915050565b6000602082019050919050565b600061287b82612595565b61288581856125a0565b935083602082028501612897856125b1565b8060005b858110156128d357848403895281516128b4858261284f565b94506128bf83612863565b925060208a0199505060018101905061289b565b50829750879550505050505092915050565b600060208201905081810360008301526128ff8184612870565b905092915050565b6000604051905090565b600080fd5b600080fd5b600073ffffffffffffffffffffffffffffffffffffffff82169050919050565b60006129468261291b565b9050919050565b6129568161293b565b811461296157600080fd5b50565b6000813590506129738161294d565b92915050565b612982816125c1565b811461298d57600080fd5b50565b60008135905061299f81612979565b92915050565b6000806000606084860312156129be576129bd612911565b5b60006129cc86828701612964565b93505060206129dd86828701612990565b92505060406129ee86828701612990565b9150509250925092565b612a01816125c1565b82525050565b600082825260208201905092915050565b6000612a23826125da565b612a2d8185612a07565b9350612a3d8185602086016125f6565b612a4681612620565b840191505092915050565b612a5a81612696565b82525050565b600060c082019050612a7560008301896129f8565b8181036020830152612a878188612a18565b90508181036040830152612a9b8187612a18565b9050612aaa6060830186612a51565b612ab760808301856129f8565b612ac460a08301846129f8565b979650505050505050565b600060208284031215612ae557612ae4612911565b5b6000612af384828501612990565b91505092915050565b600060a083016000830151612b1460008601826125cb565b5060208301518482036020860152612b2c8282612631565b91505060408301518482036040860152612b468282612631565b91505060608301518482036060860152612b608282612631565b91505060808301518482036080860152612b7a828261274f565b9150508091505092915050565b60006020820190508181036000830152612ba18184612afc565b905092915050565b60008060408385031215612bc057612bbf612911565b5b6000612bce85828601612964565b9250506020612bdf85828601612990565b9150509250929050565b600081519050919050565b600082825260208201905092915050565b6000819050602082019050919050565b600060c083016000830151612c2d60008601826125cb565b5060208301518482036020860152612c458282612631565b91505060408301518482036040860152612c5f8282612631565b9150506060830151612c7460608601826126a2565b506080830151612c8760808601826125cb565b5060a0830151612c9a60a08601826125cb565b508091505092915050565b6000612cb18383612c15565b905092915050565b6000602082019050919050565b6000612cd182612be9565b612cdb8185612bf4565b935083602082028501612ced85612c05565b8060005b85811015612d295784840389528151612d0a8582612ca5565b9450612d1583612cb9565b925060208a01995050600181019050612cf1565b50829750879550505050505092915050565b60006020820190508181036000830152612d558184612cc6565b905092915050565b6000602082019050612d7260008301846129f8565b92915050565b600060208284031215612d8e57612d8d612911565b5b6000612d9c84828501612964565b91505092915050565b600080fd5b600080fd5b7f4e487b7100000000000000000000000000000000000000000000000000000000600052604160045260246000fd5b612de782612620565b810181811067ffffffffffffffff82111715612e0657612e05612daf565b5b80604052505050565b6000612e19612907565b9050612e258282612dde565b919050565b600067ffffffffffffffff821115612e4557612e44612daf565b5b612e4e82612620565b9050602081019050919050565b82818337600083830152505050565b6000612e7d612e7884612e2a565b612e0f565b905082815260208101848484011115612e9957612e98612daa565b5b612ea4848285612e5b565b509392505050565b600082601f830112612ec157612ec0612da5565b5b8135612ed1848260208601612e6a565b91505092915050565b600067ffffffffffffffff821115612ef557612ef4612daf565b5b602082029050602081019050919050565b600080fd5b600080fd5b600080fd5b612f1e81612696565b8114612f2957600080fd5b50565b600081359050612f3b81612f15565b92915050565b600060a08284031215612f5757612f56612f0b565b5b612f6160a0612e0f565b90506000612f7184828501612990565b600083015250602082013567ffffffffffffffff811115612f9557612f94612f10565b5b612fa184828501612eac565b602083015250604082013567ffffffffffffffff811115612fc557612fc4612f10565b5b612fd184828501612eac565b6040830152506060612fe584828501612f2c565b6060830152506080612ff984828501612990565b60808301525092915050565b600061301861301384612eda565b612e0f565b9050808382526020820190506020840283018581111561303b5761303a612f06565b5b835b8181101561308257803567ffffffffffffffff8111156130605761305f612da5565b5b80860161306d8982612f41565b8552602085019450505060208101905061303d565b5050509392505050565b600082601f8301126130a1576130a0612da5565b5b81356130b1848260208601613005565b91505092915050565b600080600080608085870312156130d4576130d3612911565b5b600085013567ffffffffffffffff8111156130f2576130f1612916565b5b6130fe87828801612eac565b945050602085013567ffffffffffffffff81111561311f5761311e612916565b5b61312b87828801612eac565b935050604085013567ffffffffffffffff81111561314c5761314b612916565b5b61315887828801612eac565b925050606085013567ffffffffffffffff81111561317957613178612916565b5b6131858782880161308c565b91505092959194509250565b60006020820190506131a66000830184612a51565b92915050565b6131b58161293b565b82525050565b60006020820190506131d060008301846131ac565b92915050565b60006080820190506131eb60008301876129f8565b81810360208301526131fd8186612a18565b905081810360408301526132118185612a18565b905081810360608301526132258184612a18565b905095945050505050565b6000806040838503121561324757613246612911565b5b600061325585828601612990565b925050602061326685828601612964565b9150509250929050565b600067ffffffffffffffff82111561328b5761328a612daf565b5b602082029050602081019050919050565b600060c082840312156132b2576132b1612f0b565b5b6132bc60c0612e0f565b905060006132cc84828501612990565b600083015250602082013567ffffffffffffffff8111156132f0576132ef612f10565b5b6132fc84828501612eac565b602083015250604082013567ffffffffffffffff8111156133205761331f612f10565b5b61332c84828501612eac565b604083015250606061334084828501612f2c565b606083015250608061335484828501612990565b60808301525060a061336884828501612990565b60a08301525092915050565b600061338761338284613270565b612e0f565b905080838252602082019050602084028301858111156133aa576133a9612f06565b5b835b818110156133f157803567ffffffffffffffff8111156133cf576133ce612da5565b5b8086016133dc898261329c565b855260208501945050506020810190506133ac565b5050509392505050565b600082601f8301126134105761340f612da5565b5b8135613420848260208601613374565b91505092915050565b60008060006060848603121561344257613441612911565b5b600061345086828701612964565b935050602061346186828701612990565b925050604084013567ffffffffffffffff81111561348257613481612916565b5b61348e868287016133fb565b9150509250925092565b7f4e487b7100000000000000000000000000000000000000000000000000000000600052602260045260246000fd5b600060028204905060018216806134df57607f821691505b6020821081036134f2576134f1613498565b5b50919050565b7f4e487b7100000000000000000000000000000000000000000000000000000000600052603260045260246000fd5b7f4e487b7100000000000000000000000000000000000000000000000000000000600052601160045260246000fd5b6000613561826125c1565b91507fffffffffffffffffffffffffffffffffffffffffffffffffffffffffffffffff820361359357613592613527565b5b600182019050919050565b7f4f20637572736f206ec3a36f2065786973746500000000000000000000000000600082015250565b60006135d4601383612a07565b91506135df8261359e565b602082019050919050565b60006020820190508181036000830152613603816135c7565b9050919050565b7f566f63c3aa206ac3a120657374c3a1206d6174726963756c61646f206e65737460008201527f6520637572736f00000000000000000000000000000000000000000000000000602082015250565b6000613666602783612a07565b91506136718261360a565b604082019050919050565b6000602082019050818103600083015261369581613659565b9050919050565b60008190508160005260206000209050919050565b60006020601f8301049050919050565b600082821b905092915050565b6000600883026136fe7fffffffffffffffffffffffffffffffffffffffffffffffffffffffffffffffff826136c1565b61370886836136c1565b95508019841693508086168417925050509392505050565b6000819050919050565b600061374561374061373b846125c1565b613720565b6125c1565b9050919050565b6000819050919050565b61375f8361372a565b61377361376b8261374c565b8484546136ce565b825550505050565b600090565b61378861377b565b613793818484613756565b505050565b5b818110156137b7576137ac600082613780565b600181019050613799565b5050565b601f8211156137fc576137cd8161369c565b6137d6846136b1565b810160208510156137e5578190505b6137f96137f1856136b1565b830182613798565b50505b505050565b600082821c905092915050565b600061381f60001984600802613801565b1980831691505092915050565b6000613838838361380e565b9150826002028217905092915050565b613851826125da565b67ffffffffffffffff81111561386a57613869612daf565b5b61387482546134c7565b61387f8282856137bb565b600060209050601f8311600181146138b257600084156138a0578287015190505b6138aa858261382c565b865550613912565b601f1984166138c08661369c565b60005b828110156138e8578489015182556001820191506020850194506020810190506138c3565b868310156139055784890151613901601f89168261380e565b8355505b6001600288020188555050505b505050505050565b600060608201905081810360008301526139348186612a18565b905081810360208301526139488185612a18565b9050818103604083015261395c8184612a18565b9050949350505050565b7f4f206573747564616e7465206ec3a36f20657374c3a1206d6174726963756c6160008201527f646f206e6573746520637572736f000000000000000000000000000000000000602082015250565b60006139c2602e83612a07565b91506139cd82613966565b604082019050919050565b600060208201905081810360008301526139f1816139b5565b9050919050565b7f4ec3a36f20666f72616d20656e636f6e747261646f7320726567697374726f7360008201527f2070617261206573746520616c756e6f206e6f20637572736f2065737065636960208201527f66696361646f2e00000000000000000000000000000000000000000000000000604082015250565b6000613a7a604783612a07565b9150613a85826139f8565b606082019050919050565b60006020820190508181036000830152613aa981613a6d565b9050919050565b7f4e6f746173206ec3a36f20666f726e6563696461730000000000000000000000600082015250565b6000613ae6601583612a07565b9150613af182613ab0565b602082019050919050565b60006020820190508181036000830152613b1581613ad9565b9050919050565b7f4ec3ba6d65726f20696e76c3a16c69646f206465206e6f74617320666f726e6560008201527f6369646173000000000000000000000000000000000000000000000000000000602082015250565b6000613b78602583612a07565b9150613b8382613b1c565b604082019050919050565b60006020820190508181036000830152613ba781613b6b565b9050919050565b7f43c3b36469676f20646f206dc3b364756c6f20696e76c3a16c69646f00000000600082015250565b6000613be4601c83612a07565b9150613bef82613bae565b602082019050919050565b60006020820190508181036000830152613c1381613bd7565b905091905056fea2646970667358221220de7c7134f8e27ede7b313e42d52e39653a30bd9a3e510eb4496f0c4038980f4a64736f6c63430008140033",
  "linkReferences": {},
  "deployedLinkReferences": {}
}