{
  "_format": "hh-sol-artifact-1",
  "contractName": "AcademicManager",
  "sourceName": "contracts/AcademicManager.sol",
  "abi": [
    {
      "inputs": [],
      "stateMutability": "nonpayable",
      "type": "constructor"
    },
    {
      "inputs": [],
      "name": "OnlyOwner",
      "type": "error"
    },
    {
      "anonymous": false,
      "inputs": [
        {
          "indexed": true,
          "internalType": "uint256",
          "name": "courseId",
          "type": "uint256"
        },
        {
          "indexed": false,
          "internalType": "string",
          "name": "courseName",
          "type": "string"
        },
        {
          "indexed": false,
          "internalType": "string",
          "name": "courseDescription",
          "type": "string"
        },
        {
          "indexed": false,
          "internalType": "string",
          "name": "courseImageURI",
          "type": "string"
        },
        {
          "indexed": false,
          "internalType": "uint256",
          "name": "coursePrice",
          "type": "uint256"
        }
      ],
      "name": "CourseCreated",
      "type": "event"
    },
    {
      "anonymous": false,
      "inputs": [
        {
          "indexed": true,
          "internalType": "uint256",
          "name": "courseId",
          "type": "uint256"
        },
        {
          "indexed": true,
          "internalType": "address",
          "name": "student",
          "type": "address"
        }
      ],
      "name": "StudentEnrolled",
      "type": "event"
    },
    {
      "inputs": [
        {
          "internalType": "uint256",
          "name": "_courseId",
          "type": "uint256"
        },
        {
          "internalType": "uint256",
          "name": "_lessonId",
          "type": "uint256"
        },
        {
          "internalType": "string",
          "name": "_answer",
          "type": "string"
        }
      ],
      "name": "assignAnswer",
      "outputs": [],
      "stateMutability": "nonpayable",
      "type": "function"
    },
    {
      "inputs": [
        {
          "internalType": "address",
          "name": "_student",
          "type": "address"
        },
        {
          "internalType": "uint256",
          "name": "_courseId",
          "type": "uint256"
        },
        {
          "components": [
            {
              "internalType": "uint256",
              "name": "lessonId",
              "type": "uint256"
            },
            {
              "internalType": "string",
              "name": "lessonName",
              "type": "string"
            },
            {
              "internalType": "string",
              "name": "lessonContent",
              "type": "string"
            },
            {
              "internalType": "string",
              "name": "lessonQuestion",
              "type": "string"
            },
            {
              "internalType": "string",
              "name": "lessonAnswer",
              "type": "string"
            },
            {
              "internalType": "string",
              "name": "lessonDocURI",
              "type": "string"
            },
            {
              "internalType": "bool",
              "name": "mandatory",
              "type": "bool"
            },
            {
              "internalType": "uint256",
              "name": "minimumPassingScore",
              "type": "uint256"
            },
            {
              "internalType": "uint256",
              "name": "score",
              "type": "uint256"
            }
          ],
          "internalType": "struct AcademicManager.SchoolRecords[]",
          "name": "_scores",
          "type": "tuple[]"
        }
      ],
      "name": "assignScores",
      "outputs": [],
      "stateMutability": "nonpayable",
      "type": "function"
    },
    {
      "inputs": [
        {
          "internalType": "address",
          "name": "_student",
          "type": "address"
        },
        {
          "internalType": "uint256",
          "name": "_courseId",
          "type": "uint256"
        }
      ],
      "name": "checkCourseApproval",
      "outputs": [
        {
          "internalType": "bool",
          "name": "",
          "type": "bool"
        }
      ],
      "stateMutability": "view",
      "type": "function"
    },
    {
      "inputs": [
        {
          "internalType": "uint256",
          "name": "",
          "type": "uint256"
        }
      ],
      "name": "courses",
      "outputs": [
        {
          "internalType": "uint256",
          "name": "courseId",
          "type": "uint256"
        },
        {
          "internalType": "string",
          "name": "courseName",
          "type": "string"
        },
        {
          "internalType": "string",
          "name": "courseDescription",
          "type": "string"
        },
        {
          "internalType": "string",
          "name": "courseImageURI",
          "type": "string"
        },
        {
          "internalType": "uint256",
          "name": "coursePrice",
          "type": "uint256"
        }
      ],
      "stateMutability": "view",
      "type": "function"
    },
    {
      "inputs": [
        {
          "internalType": "string",
          "name": "_courseName",
          "type": "string"
        },
        {
          "internalType": "string",
          "name": "_courseDescription",
          "type": "string"
        },
        {
          "internalType": "string",
          "name": "_courseImageURI",
          "type": "string"
        },
        {
          "internalType": "uint256",
          "name": "_coursePrice",
          "type": "uint256"
        },
        {
          "components": [
            {
              "internalType": "uint256",
              "name": "lessonId",
              "type": "uint256"
            },
            {
              "internalType": "string",
              "name": "lessonName",
              "type": "string"
            },
            {
              "internalType": "string",
              "name": "lessonContent",
              "type": "string"
            },
            {
              "internalType": "string",
              "name": "lessonQuestion",
              "type": "string"
            },
            {
              "internalType": "string",
              "name": "lessonDocURI",
              "type": "string"
            },
            {
              "internalType": "string",
              "name": "lessonAnswer",
              "type": "string"
            },
            {
              "internalType": "bool",
              "name": "mandatory",
              "type": "bool"
            },
            {
              "internalType": "uint256",
              "name": "minimumPassingScore",
              "type": "uint256"
            }
          ],
          "internalType": "struct Lesson[]",
          "name": "_lessons",
          "type": "tuple[]"
        }
      ],
      "name": "createCourse",
      "outputs": [],
      "stateMutability": "nonpayable",
      "type": "function"
    },
    {
      "inputs": [
        {
          "internalType": "uint256",
          "name": "_courseId",
          "type": "uint256"
        }
      ],
      "name": "enrollStudent",
      "outputs": [],
      "stateMutability": "nonpayable",
      "type": "function"
    },
    {
      "inputs": [
        {
          "internalType": "uint256",
          "name": "",
          "type": "uint256"
        },
        {
          "internalType": "address",
          "name": "",
          "type": "address"
        }
      ],
      "name": "enrollments",
      "outputs": [
        {
          "internalType": "bool",
          "name": "",
          "type": "bool"
        }
      ],
      "stateMutability": "view",
      "type": "function"
    },
    {
      "inputs": [
        {
          "internalType": "address",
          "name": "",
          "type": "address"
        },
        {
          "internalType": "uint256",
          "name": "",
          "type": "uint256"
        }
      ],
      "name": "enrollmentsByStudent",
      "outputs": [
        {
          "internalType": "uint256",
          "name": "",
          "type": "uint256"
        }
      ],
      "stateMutability": "view",
      "type": "function"
    },
    {
      "inputs": [],
      "name": "getAllCourses",
      "outputs": [
        {
          "components": [
            {
              "internalType": "uint256",
              "name": "courseId",
              "type": "uint256"
            },
            {
              "internalType": "string",
              "name": "courseName",
              "type": "string"
            },
            {
              "internalType": "string",
              "name": "courseDescription",
              "type": "string"
            },
            {
              "internalType": "string",
              "name": "courseImageURI",
              "type": "string"
            },
            {
              "internalType": "uint256",
              "name": "coursePrice",
              "type": "uint256"
            },
            {
              "components": [
                {
                  "internalType": "uint256",
                  "name": "lessonId",
                  "type": "uint256"
                },
                {
                  "internalType": "string",
                  "name": "lessonName",
                  "type": "string"
                },
                {
                  "internalType": "string",
                  "name": "lessonContent",
                  "type": "string"
                },
                {
                  "internalType": "string",
                  "name": "lessonQuestion",
                  "type": "string"
                },
                {
                  "internalType": "string",
                  "name": "lessonDocURI",
                  "type": "string"
                },
                {
                  "internalType": "string",
                  "name": "lessonAnswer",
                  "type": "string"
                },
                {
                  "internalType": "bool",
                  "name": "mandatory",
                  "type": "bool"
                },
                {
                  "internalType": "uint256",
                  "name": "minimumPassingScore",
                  "type": "uint256"
                }
              ],
              "internalType": "struct Lesson[]",
              "name": "lessons",
              "type": "tuple[]"
            }
          ],
          "internalType": "struct Course[]",
          "name": "",
          "type": "tuple[]"
        }
      ],
      "stateMutability": "view",
      "type": "function"
    },
    {
      "inputs": [
        {
          "internalType": "uint256",
          "name": "_courseId",
          "type": "uint256"
        }
      ],
      "name": "getCourse",
      "outputs": [
        {
          "components": [
            {
              "internalType": "uint256",
              "name": "courseId",
              "type": "uint256"
            },
            {
              "internalType": "string",
              "name": "courseName",
              "type": "string"
            },
            {
              "internalType": "string",
              "name": "courseDescription",
              "type": "string"
            },
            {
              "internalType": "string",
              "name": "courseImageURI",
              "type": "string"
            },
            {
              "internalType": "uint256",
              "name": "coursePrice",
              "type": "uint256"
            },
            {
              "components": [
                {
                  "internalType": "uint256",
                  "name": "lessonId",
                  "type": "uint256"
                },
                {
                  "internalType": "string",
                  "name": "lessonName",
                  "type": "string"
                },
                {
                  "internalType": "string",
                  "name": "lessonContent",
                  "type": "string"
                },
                {
                  "internalType": "string",
                  "name": "lessonQuestion",
                  "type": "string"
                },
                {
                  "internalType": "string",
                  "name": "lessonDocURI",
                  "type": "string"
                },
                {
                  "internalType": "string",
                  "name": "lessonAnswer",
                  "type": "string"
                },
                {
                  "internalType": "bool",
                  "name": "mandatory",
                  "type": "bool"
                },
                {
                  "internalType": "uint256",
                  "name": "minimumPassingScore",
                  "type": "uint256"
                }
              ],
              "internalType": "struct Lesson[]",
              "name": "lessons",
              "type": "tuple[]"
            }
          ],
          "internalType": "struct Course",
          "name": "",
          "type": "tuple"
        }
      ],
      "stateMutability": "view",
      "type": "function"
    },
    {
      "inputs": [
        {
          "internalType": "address",
          "name": "_student",
          "type": "address"
        }
      ],
      "name": "getCoursesByStudent",
      "outputs": [
        {
          "components": [
            {
              "internalType": "uint256",
              "name": "courseId",
              "type": "uint256"
            },
            {
              "internalType": "string",
              "name": "courseName",
              "type": "string"
            },
            {
              "internalType": "string",
              "name": "courseDescription",
              "type": "string"
            },
            {
              "internalType": "string",
              "name": "courseImageURI",
              "type": "string"
            },
            {
              "internalType": "uint256",
              "name": "coursePrice",
              "type": "uint256"
            },
            {
              "components": [
                {
                  "internalType": "uint256",
                  "name": "lessonId",
                  "type": "uint256"
                },
                {
                  "internalType": "string",
                  "name": "lessonName",
                  "type": "string"
                },
                {
                  "internalType": "string",
                  "name": "lessonContent",
                  "type": "string"
                },
                {
                  "internalType": "string",
                  "name": "lessonQuestion",
                  "type": "string"
                },
                {
                  "internalType": "string",
                  "name": "lessonDocURI",
                  "type": "string"
                },
                {
                  "internalType": "string",
                  "name": "lessonAnswer",
                  "type": "string"
                },
                {
                  "internalType": "bool",
                  "name": "mandatory",
                  "type": "bool"
                },
                {
                  "internalType": "uint256",
                  "name": "minimumPassingScore",
                  "type": "uint256"
                }
              ],
              "internalType": "struct Lesson[]",
              "name": "lessons",
              "type": "tuple[]"
            }
          ],
          "internalType": "struct Course[]",
          "name": "",
          "type": "tuple[]"
        }
      ],
      "stateMutability": "view",
      "type": "function"
    },
    {
      "inputs": [],
      "name": "getOwner",
      "outputs": [
        {
          "internalType": "address",
          "name": "",
          "type": "address"
        }
      ],
      "stateMutability": "view",
      "type": "function"
    },
    {
      "inputs": [
        {
          "internalType": "address",
          "name": "_student",
          "type": "address"
        },
        {
          "internalType": "uint256",
          "name": "_courseId",
          "type": "uint256"
        }
      ],
      "name": "getStudentRecords",
      "outputs": [
        {
          "components": [
            {
              "internalType": "uint256",
              "name": "lessonId",
              "type": "uint256"
            },
            {
              "internalType": "string",
              "name": "lessonName",
              "type": "string"
            },
            {
              "internalType": "string",
              "name": "lessonContent",
              "type": "string"
            },
            {
              "internalType": "string",
              "name": "lessonQuestion",
              "type": "string"
            },
            {
              "internalType": "string",
              "name": "lessonAnswer",
              "type": "string"
            },
            {
              "internalType": "string",
              "name": "lessonDocURI",
              "type": "string"
            },
            {
              "internalType": "bool",
              "name": "mandatory",
              "type": "bool"
            },
            {
              "internalType": "uint256",
              "name": "minimumPassingScore",
              "type": "uint256"
            },
            {
              "internalType": "uint256",
              "name": "score",
              "type": "uint256"
            }
          ],
          "internalType": "struct AcademicManager.SchoolRecords[]",
          "name": "",
          "type": "tuple[]"
        }
      ],
      "stateMutability": "view",
      "type": "function"
    },
    {
      "inputs": [],
      "name": "nextCourseId",
      "outputs": [
        {
          "internalType": "uint256",
          "name": "",
          "type": "uint256"
        }
      ],
      "stateMutability": "view",
      "type": "function"
    },
    {
      "inputs": [],
      "name": "owner",
      "outputs": [
        {
          "internalType": "address payable",
          "name": "",
          "type": "address"
        }
      ],
      "stateMutability": "view",
      "type": "function"
    },
    {
      "inputs": [
        {
          "internalType": "address",
          "name": "",
          "type": "address"
        },
        {
          "internalType": "uint256",
          "name": "",
          "type": "uint256"
        },
        {
          "internalType": "uint256",
          "name": "",
          "type": "uint256"
        }
      ],
      "name": "studentRecordsByCourseId",
      "outputs": [
        {
          "internalType": "uint256",
          "name": "lessonId",
          "type": "uint256"
        },
        {
          "internalType": "string",
          "name": "lessonName",
          "type": "string"
        },
        {
          "internalType": "string",
          "name": "lessonContent",
          "type": "string"
        },
        {
          "internalType": "string",
          "name": "lessonQuestion",
          "type": "string"
        },
        {
          "internalType": "string",
          "name": "lessonAnswer",
          "type": "string"
        },
        {
          "internalType": "string",
          "name": "lessonDocURI",
          "type": "string"
        },
        {
          "internalType": "bool",
          "name": "mandatory",
          "type": "bool"
        },
        {
          "internalType": "uint256",
          "name": "minimumPassingScore",
          "type": "uint256"
        },
        {
          "internalType": "uint256",
          "name": "score",
          "type": "uint256"
        }
      ],
      "stateMutability": "view",
      "type": "function"
    }
  ],
  "bytecode": "0x608060405234801561001057600080fd5b50336000806101000a81548173ffffffffffffffffffffffffffffffffffffffff021916908373ffffffffffffffffffffffffffffffffffffffff160217905550614f92806100606000396000f3fe608060405234801561001057600080fd5b50600436106101005760003560e01c8063482948d711610097578063893d20e811610066578063893d20e8146102d95780638da5cb5b146102f757806396f979d214610315578063dfb804031461034957610100565b8063482948d71461023f57806371196f641461026f5780637c8e455d1461029f5780637d83daf2146102bb57610100565b80631427e99e116100d35780631427e99e146101a75780631a52f25e146101c35780633ef1e238146101f3578063403377441461022357610100565b806304e48bd11461010557806309b8ad05146101235780630b91e28d1461015b5780630e7691921461018b575b600080fd5b61010d610379565b60405161011a91906138ef565b60405180910390f35b61013d600480360381019061013891906139af565b61096c565b60405161015299989796959493929190613a6a565b60405180910390f35b61017560048036038101906101709190613b1a565b610c99565b6040516101829190613be5565b60405180910390f35b6101a560048036038101906101a09190613fae565b61123d565b005b6101c160048036038101906101bc91906142e6565b611593565b005b6101dd60048036038101906101d89190614355565b6118ca565b6040516101ea9190614538565b60405180910390f35b61020d60048036038101906102089190614355565b611c8e565b60405161021a919061455a565b60405180910390f35b61023d60048036038101906102389190613b1a565b611cbf565b005b61025960048036038101906102549190614575565b6124a4565b60405161026691906138ef565b60405180910390f35b61028960048036038101906102849190614355565b612b47565b60405161029691906145a2565b60405180910390f35b6102b960048036038101906102b491906145bd565b6130a8565b005b6102c36132b7565b6040516102d0919061455a565b60405180910390f35b6102e16132bd565b6040516102ee919061463b565b60405180910390f35b6102ff6132e6565b60405161030c9190614677565b60405180910390f35b61032f600480360381019061032a9190613b1a565b61330a565b604051610340959493929190614692565b60405180910390f35b610363600480360381019061035e91906146fa565b6134d8565b60405161037091906145a2565b60405180910390f35b6060600060015467ffffffffffffffff81111561039957610398613c11565b5b6040519080825280602002602001820160405280156103d257816020015b6103bf613507565b8152602001906001900390816103b75790505b50905060005b60015481101561096457600260008281526020019081526020016000206040518060c00160405290816000820154815260200160018201805461041a90614769565b80601f016020809104026020016040519081016040528092919081815260200182805461044690614769565b80156104935780601f1061046857610100808354040283529160200191610493565b820191906000526020600020905b81548152906001019060200180831161047657829003601f168201915b505050505081526020016002820180546104ac90614769565b80601f01602080910402602001604051908101604052809291908181526020018280546104d890614769565b80156105255780601f106104fa57610100808354040283529160200191610525565b820191906000526020600020905b81548152906001019060200180831161050857829003601f168201915b5050505050815260200160038201805461053e90614769565b80601f016020809104026020016040519081016040528092919081815260200182805461056a90614769565b80156105b75780601f1061058c576101008083540402835291602001916105b7565b820191906000526020600020905b81548152906001019060200180831161059a57829003601f168201915b505050505081526020016004820154815260200160058201805480602002602001604051908101604052809291908181526020016000905b8282101561092b5783829060005260206000209060080201604051806101000160405290816000820154815260200160018201805461062d90614769565b80601f016020809104026020016040519081016040528092919081815260200182805461065990614769565b80156106a65780601f1061067b576101008083540402835291602001916106a6565b820191906000526020600020905b81548152906001019060200180831161068957829003601f168201915b505050505081526020016002820180546106bf90614769565b80601f01602080910402602001604051908101604052809291908181526020018280546106eb90614769565b80156107385780601f1061070d57610100808354040283529160200191610738565b820191906000526020600020905b81548152906001019060200180831161071b57829003601f168201915b5050505050815260200160038201805461075190614769565b80601f016020809104026020016040519081016040528092919081815260200182805461077d90614769565b80156107ca5780601f1061079f576101008083540402835291602001916107ca565b820191906000526020600020905b8154815290600101906020018083116107ad57829003601f168201915b505050505081526020016004820180546107e390614769565b80601f016020809104026020016040519081016040528092919081815260200182805461080f90614769565b801561085c5780601f106108315761010080835404028352916020019161085c565b820191906000526020600020905b81548152906001019060200180831161083f57829003601f168201915b5050505050815260200160058201805461087590614769565b80601f01602080910402602001604051908101604052809291908181526020018280546108a190614769565b80156108ee5780601f106108c3576101008083540402835291602001916108ee565b820191906000526020600020905b8154815290600101906020018083116108d157829003601f168201915b505050505081526020016006820160009054906101000a900460ff16151515158152602001600782015481525050815260200190600101906105ef565b50505050815250508282815181106109465761094561479a565b5b6020026020010181905250808061095c906147f8565b9150506103d8565b508091505090565b6005602052826000526040600020602052816000526040600020818154811061099457600080fd5b906000526020600020906009020160009250925050508060000154908060010180546109bf90614769565b80601f01602080910402602001604051908101604052809291908181526020018280546109eb90614769565b8015610a385780601f10610a0d57610100808354040283529160200191610a38565b820191906000526020600020905b815481529060010190602001808311610a1b57829003601f168201915b505050505090806002018054610a4d90614769565b80601f0160208091040260200160405190810160405280929190818152602001828054610a7990614769565b8015610ac65780601f10610a9b57610100808354040283529160200191610ac6565b820191906000526020600020905b815481529060010190602001808311610aa957829003601f168201915b505050505090806003018054610adb90614769565b80601f0160208091040260200160405190810160405280929190818152602001828054610b0790614769565b8015610b545780601f10610b2957610100808354040283529160200191610b54565b820191906000526020600020905b815481529060010190602001808311610b3757829003601f168201915b505050505090806004018054610b6990614769565b80601f0160208091040260200160405190810160405280929190818152602001828054610b9590614769565b8015610be25780601f10610bb757610100808354040283529160200191610be2565b820191906000526020600020905b815481529060010190602001808311610bc557829003601f168201915b505050505090806005018054610bf790614769565b80601f0160208091040260200160405190810160405280929190818152602001828054610c2390614769565b8015610c705780601f10610c4557610100808354040283529160200191610c70565b820191906000526020600020905b815481529060010190602001808311610c5357829003601f168201915b5050505050908060060160009054906101000a900460ff16908060070154908060080154905089565b610ca1613507565b6001548210610ce5576040517f08c379a0000000000000000000000000000000000000000000000000000000008152600401610cdc9061488c565b60405180910390fd5b600260008381526020019081526020016000206040518060c001604052908160008201548152602001600182018054610d1d90614769565b80601f0160208091040260200160405190810160405280929190818152602001828054610d4990614769565b8015610d965780601f10610d6b57610100808354040283529160200191610d96565b820191906000526020600020905b815481529060010190602001808311610d7957829003601f168201915b50505050508152602001600282018054610daf90614769565b80601f0160208091040260200160405190810160405280929190818152602001828054610ddb90614769565b8015610e285780601f10610dfd57610100808354040283529160200191610e28565b820191906000526020600020905b815481529060010190602001808311610e0b57829003601f168201915b50505050508152602001600382018054610e4190614769565b80601f0160208091040260200160405190810160405280929190818152602001828054610e6d90614769565b8015610eba5780601f10610e8f57610100808354040283529160200191610eba565b820191906000526020600020905b815481529060010190602001808311610e9d57829003601f168201915b505050505081526020016004820154815260200160058201805480602002602001604051908101604052809291908181526020016000905b8282101561122e57838290600052602060002090600802016040518061010001604052908160008201548152602001600182018054610f3090614769565b80601f0160208091040260200160405190810160405280929190818152602001828054610f5c90614769565b8015610fa95780601f10610f7e57610100808354040283529160200191610fa9565b820191906000526020600020905b815481529060010190602001808311610f8c57829003601f168201915b50505050508152602001600282018054610fc290614769565b80601f0160208091040260200160405190810160405280929190818152602001828054610fee90614769565b801561103b5780601f106110105761010080835404028352916020019161103b565b820191906000526020600020905b81548152906001019060200180831161101e57829003601f168201915b5050505050815260200160038201805461105490614769565b80601f016020809104026020016040519081016040528092919081815260200182805461108090614769565b80156110cd5780601f106110a2576101008083540402835291602001916110cd565b820191906000526020600020905b8154815290600101906020018083116110b057829003601f168201915b505050505081526020016004820180546110e690614769565b80601f016020809104026020016040519081016040528092919081815260200182805461111290614769565b801561115f5780601f106111345761010080835404028352916020019161115f565b820191906000526020600020905b81548152906001019060200180831161114257829003601f168201915b5050505050815260200160058201805461117890614769565b80601f01602080910402602001604051908101604052809291908181526020018280546111a490614769565b80156111f15780601f106111c6576101008083540402835291602001916111f1565b820191906000526020600020905b8154815290600101906020018083116111d457829003601f168201915b505050505081526020016006820160009054906101000a900460ff1615151515815260200160078201548152505081526020019060010190610ef2565b50505050815250509050919050565b3373ffffffffffffffffffffffffffffffffffffffff1660008054906101000a900473ffffffffffffffffffffffffffffffffffffffff1673ffffffffffffffffffffffffffffffffffffffff16146112c2576040517f5fc483c500000000000000000000000000000000000000000000000000000000815260040160405180910390fd5b600060026000600154815260200190815260200160002090506001548160000181905550858160010190816112f79190614a58565b50848160020190816113099190614a58565b508381600301908161131b9190614a58565b5082816004018190555060005b825181101561153257816005016040518061010001604052808584815181106113545761135361479a565b5b60200260200101516000015181526020018584815181106113785761137761479a565b5b602002602001015160200151815260200185848151811061139c5761139b61479a565b5b60200260200101516040015181526020018584815181106113c0576113bf61479a565b5b60200260200101516060015181526020018584815181106113e4576113e361479a565b5b602002602001015160800151815260200160405180602001604052806000815250815260200185848151811061141d5761141c61479a565b5b602002602001015160c00151151581526020018584815181106114435761144261479a565b5b602002602001015160e00151815250908060018154018082558091505060019003906000526020600020906008020160009091909190915060008201518160000155602082015181600101908161149a9190614a58565b5060408201518160020190816114b09190614a58565b5060608201518160030190816114c69190614a58565b5060808201518160040190816114dc9190614a58565b5060a08201518160050190816114f29190614a58565b5060c08201518160060160006101000a81548160ff02191690831515021790555060e082015181600701555050808061152a906147f8565b915050611328565b506001547f5bee2aedc961d42361231ac402830c7795fd3201e584507c5b85f0633d9857958787878760405161156b9493929190614b2a565b60405180910390a260016000815480929190611586906147f8565b9190505550505050505050565b3373ffffffffffffffffffffffffffffffffffffffff1660008054906101000a900473ffffffffffffffffffffffffffffffffffffffff1673ffffffffffffffffffffffffffffffffffffffff1614611618576040517f5fc483c500000000000000000000000000000000000000000000000000000000815260040160405180910390fd5b600154821061165c576040517f08c379a00000000000000000000000000000000000000000000000000000000081526004016116539061488c565b60405180910390fd5b60008151116116a0576040517f08c379a000000000000000000000000000000000000000000000000000000000815260040161169790614bd0565b60405180910390fd5b6003600083815260200190815260200160002060008473ffffffffffffffffffffffffffffffffffffffff1673ffffffffffffffffffffffffffffffffffffffff16815260200190815260200160002060009054906101000a900460ff1661173d576040517f08c379a000000000000000000000000000000000000000000000000000000000815260040161173490614c62565b60405180910390fd5b6000600560008573ffffffffffffffffffffffffffffffffffffffff1673ffffffffffffffffffffffffffffffffffffffff1681526020019081526020016000206000848152602001908152602001600020905080805490508251146117d8576040517f08c379a00000000000000000000000000000000000000000000000000000000081526004016117cf90614cf4565b60405180910390fd5b60005b82518110156118c3578281815181106117f7576117f661479a565b5b6020026020010151600001518282815481106118165761181561479a565b5b90600052602060002090600902016000015414611868576040517f08c379a000000000000000000000000000000000000000000000000000000000815260040161185f90614d60565b60405180910390fd5b82818151811061187b5761187a61479a565b5b6020026020010151610100015182828154811061189b5761189a61479a565b5b90600052602060002090600902016008018190555080806118bb906147f8565b9150506117db565b5050505050565b6060600560008473ffffffffffffffffffffffffffffffffffffffff1673ffffffffffffffffffffffffffffffffffffffff1681526020019081526020016000206000838152602001908152602001600020805480602002602001604051908101604052809291908181526020016000905b82821015611c825783829060005260206000209060090201604051806101200160405290816000820154815260200160018201805461197a90614769565b80601f01602080910402602001604051908101604052809291908181526020018280546119a690614769565b80156119f35780601f106119c8576101008083540402835291602001916119f3565b820191906000526020600020905b8154815290600101906020018083116119d657829003601f168201915b50505050508152602001600282018054611a0c90614769565b80601f0160208091040260200160405190810160405280929190818152602001828054611a3890614769565b8015611a855780601f10611a5a57610100808354040283529160200191611a85565b820191906000526020600020905b815481529060010190602001808311611a6857829003601f168201915b50505050508152602001600382018054611a9e90614769565b80601f0160208091040260200160405190810160405280929190818152602001828054611aca90614769565b8015611b175780601f10611aec57610100808354040283529160200191611b17565b820191906000526020600020905b815481529060010190602001808311611afa57829003601f168201915b50505050508152602001600482018054611b3090614769565b80601f0160208091040260200160405190810160405280929190818152602001828054611b5c90614769565b8015611ba95780601f10611b7e57610100808354040283529160200191611ba9565b820191906000526020600020905b815481529060010190602001808311611b8c57829003601f168201915b50505050508152602001600582018054611bc290614769565b80601f0160208091040260200160405190810160405280929190818152602001828054611bee90614769565b8015611c3b5780601f10611c1057610100808354040283529160200191611c3b565b820191906000526020600020905b815481529060010190602001808311611c1e57829003601f168201915b505050505081526020016006820160009054906101000a900460ff16151515158152602001600782015481526020016008820154815250508152602001906001019061193c565b50505050905092915050565b60046020528160005260406000208181548110611caa57600080fd5b90600052602060002001600091509150505481565b6001548110611d03576040517f08c379a0000000000000000000000000000000000000000000000000000000008152600401611cfa9061488c565b60405180910390fd5b6003600082815260200190815260200160002060003373ffffffffffffffffffffffffffffffffffffffff1673ffffffffffffffffffffffffffffffffffffffff16815260200190815260200160002060009054906101000a900460ff1615611da1576040517f08c379a0000000000000000000000000000000000000000000000000000000008152600401611d9890614df2565b60405180910390fd5b60016003600083815260200190815260200160002060003373ffffffffffffffffffffffffffffffffffffffff1673ffffffffffffffffffffffffffffffffffffffff16815260200190815260200160002060006101000a81548160ff021916908315150217905550600460003373ffffffffffffffffffffffffffffffffffffffff1673ffffffffffffffffffffffffffffffffffffffff168152602001908152602001600020819080600181540180825580915050600190039060005260206000200160009091909190915055600060026000838152602001908152602001600020600501805480602002602001604051908101604052809291908181526020016000905b828210156121e457838290600052602060002090600802016040518061010001604052908160008201548152602001600182018054611ee690614769565b80601f0160208091040260200160405190810160405280929190818152602001828054611f1290614769565b8015611f5f5780601f10611f3457610100808354040283529160200191611f5f565b820191906000526020600020905b815481529060010190602001808311611f4257829003601f168201915b50505050508152602001600282018054611f7890614769565b80601f0160208091040260200160405190810160405280929190818152602001828054611fa490614769565b8015611ff15780601f10611fc657610100808354040283529160200191611ff1565b820191906000526020600020905b815481529060010190602001808311611fd457829003601f168201915b5050505050815260200160038201805461200a90614769565b80601f016020809104026020016040519081016040528092919081815260200182805461203690614769565b80156120835780601f1061205857610100808354040283529160200191612083565b820191906000526020600020905b81548152906001019060200180831161206657829003601f168201915b5050505050815260200160048201805461209c90614769565b80601f01602080910402602001604051908101604052809291908181526020018280546120c890614769565b80156121155780601f106120ea57610100808354040283529160200191612115565b820191906000526020600020905b8154815290600101906020018083116120f857829003601f168201915b5050505050815260200160058201805461212e90614769565b80601f016020809104026020016040519081016040528092919081815260200182805461215a90614769565b80156121a75780601f1061217c576101008083540402835291602001916121a7565b820191906000526020600020905b81548152906001019060200180831161218a57829003601f168201915b505050505081526020016006820160009054906101000a900460ff1615151515815260200160078201548152505081526020019060010190611ea8565b5050505090506000600560003373ffffffffffffffffffffffffffffffffffffffff1673ffffffffffffffffffffffffffffffffffffffff1681526020019081526020016000206000848152602001908152602001600020905060005b825181101561245a578160405180610120016040528085848151811061226a5761226961479a565b5b602002602001015160000151815260200185848151811061228e5761228d61479a565b5b60200260200101516020015181526020018584815181106122b2576122b161479a565b5b60200260200101516040015181526020018584815181106122d6576122d561479a565b5b602002602001015160600151815260200160405180602001604052806000815250815260200185848151811061230f5761230e61479a565b5b60200260200101516080015181526020018584815181106123335761233261479a565b5b602002602001015160c00151151581526020018584815181106123595761235861479a565b5b602002602001015160e001518152602001600081525090806001815401808255809150506001900390600052602060002090600902016000909190919091506000820151816000015560208201518160010190816123b79190614a58565b5060408201518160020190816123cd9190614a58565b5060608201518160030190816123e39190614a58565b5060808201518160040190816123f99190614a58565b5060a082015181600501908161240f9190614a58565b5060c08201518160060160006101000a81548160ff02191690831515021790555060e08201518160070155610100820151816008015550508080612452906147f8565b915050612241565b503373ffffffffffffffffffffffffffffffffffffffff16837f0729bef4a0569fb1fa09db94121e32114ae18918357d5324c3dd31440b83149e60405160405180910390a3505050565b60606000600460008473ffffffffffffffffffffffffffffffffffffffff1673ffffffffffffffffffffffffffffffffffffffff16815260200190815260200160002080548060200260200160405190810160405280929190818152602001828054801561253157602002820191906000526020600020905b81548152602001906001019080831161251d575b505050505090506000815167ffffffffffffffff81111561255557612554613c11565b5b60405190808252806020026020018201604052801561258e57816020015b61257b613507565b8152602001906001900390816125735790505b50905060005b8251811015612b3c576000600260008584815181106125b6576125b561479a565b5b6020026020010151815260200190815260200160002090506040518060c00160405280826000015481526020018260010180546125f290614769565b80601f016020809104026020016040519081016040528092919081815260200182805461261e90614769565b801561266b5780601f106126405761010080835404028352916020019161266b565b820191906000526020600020905b81548152906001019060200180831161264e57829003601f168201915b5050505050815260200182600201805461268490614769565b80601f01602080910402602001604051908101604052809291908181526020018280546126b090614769565b80156126fd5780601f106126d2576101008083540402835291602001916126fd565b820191906000526020600020905b8154815290600101906020018083116126e057829003601f168201915b5050505050815260200182600301805461271690614769565b80601f016020809104026020016040519081016040528092919081815260200182805461274290614769565b801561278f5780601f106127645761010080835404028352916020019161278f565b820191906000526020600020905b81548152906001019060200180831161277257829003601f168201915b505050505081526020018260040154815260200182600501805480602002602001604051908101604052809291908181526020016000905b82821015612b035783829060005260206000209060080201604051806101000160405290816000820154815260200160018201805461280590614769565b80601f016020809104026020016040519081016040528092919081815260200182805461283190614769565b801561287e5780601f106128535761010080835404028352916020019161287e565b820191906000526020600020905b81548152906001019060200180831161286157829003601f168201915b5050505050815260200160028201805461289790614769565b80601f01602080910402602001604051908101604052809291908181526020018280546128c390614769565b80156129105780601f106128e557610100808354040283529160200191612910565b820191906000526020600020905b8154815290600101906020018083116128f357829003601f168201915b5050505050815260200160038201805461292990614769565b80601f016020809104026020016040519081016040528092919081815260200182805461295590614769565b80156129a25780601f10612977576101008083540402835291602001916129a2565b820191906000526020600020905b81548152906001019060200180831161298557829003601f168201915b505050505081526020016004820180546129bb90614769565b80601f01602080910402602001604051908101604052809291908181526020018280546129e790614769565b8015612a345780601f10612a0957610100808354040283529160200191612a34565b820191906000526020600020905b815481529060010190602001808311612a1757829003601f168201915b50505050508152602001600582018054612a4d90614769565b80601f0160208091040260200160405190810160405280929190818152602001828054612a7990614769565b8015612ac65780601f10612a9b57610100808354040283529160200191612ac6565b820191906000526020600020905b815481529060010190602001808311612aa957829003601f168201915b505050505081526020016006820160009054906101000a900460ff16151515158152602001600782015481525050815260200190600101906127c7565b50505050815250838381518110612b1d57612b1c61479a565b5b6020026020010181905250508080612b34906147f8565b915050612594565b508092505050919050565b60006001548210612b8d576040517f08c379a0000000000000000000000000000000000000000000000000000000008152600401612b849061488c565b60405180910390fd5b6003600083815260200190815260200160002060008473ffffffffffffffffffffffffffffffffffffffff1673ffffffffffffffffffffffffffffffffffffffff16815260200190815260200160002060009054906101000a900460ff16612c2a576040517f08c379a0000000000000000000000000000000000000000000000000000000008152600401612c2190614c62565b60405180910390fd5b6000600560008573ffffffffffffffffffffffffffffffffffffffff1673ffffffffffffffffffffffffffffffffffffffff1681526020019081526020016000206000848152602001908152602001600020805480602002602001604051908101604052809291908181526020016000905b82821015612fe257838290600052602060002090600902016040518061012001604052908160008201548152602001600182018054612cda90614769565b80601f0160208091040260200160405190810160405280929190818152602001828054612d0690614769565b8015612d535780601f10612d2857610100808354040283529160200191612d53565b820191906000526020600020905b815481529060010190602001808311612d3657829003601f168201915b50505050508152602001600282018054612d6c90614769565b80601f0160208091040260200160405190810160405280929190818152602001828054612d9890614769565b8015612de55780601f10612dba57610100808354040283529160200191612de5565b820191906000526020600020905b815481529060010190602001808311612dc857829003601f168201915b50505050508152602001600382018054612dfe90614769565b80601f0160208091040260200160405190810160405280929190818152602001828054612e2a90614769565b8015612e775780601f10612e4c57610100808354040283529160200191612e77565b820191906000526020600020905b815481529060010190602001808311612e5a57829003601f168201915b50505050508152602001600482018054612e9090614769565b80601f0160208091040260200160405190810160405280929190818152602001828054612ebc90614769565b8015612f095780601f10612ede57610100808354040283529160200191612f09565b820191906000526020600020905b815481529060010190602001808311612eec57829003601f168201915b50505050508152602001600582018054612f2290614769565b80601f0160208091040260200160405190810160405280929190818152602001828054612f4e90614769565b8015612f9b5780601f10612f7057610100808354040283529160200191612f9b565b820191906000526020600020905b815481529060010190602001808311612f7e57829003601f168201915b505050505081526020016006820160009054906101000a900460ff161515151581526020016007820154815260200160088201548152505081526020019060010190612c9c565b505050509050600081511161302c576040517f08c379a000000000000000000000000000000000000000000000000000000000815260040161302390614eaa565b60405180910390fd5b60005b815181101561309b5781818151811061304b5761304a61479a565b5b602002602001015160e0015182828151811061306a5761306961479a565b5b602002602001015161010001511015613088576000925050506130a2565b8080613093906147f8565b91505061302f565b5060019150505b92915050565b60015483106130ec576040517f08c379a00000000000000000000000000000000000000000000000000000000081526004016130e39061488c565b60405180910390fd5b6003600084815260200190815260200160002060003373ffffffffffffffffffffffffffffffffffffffff1673ffffffffffffffffffffffffffffffffffffffff16815260200190815260200160002060009054906101000a900460ff16613189576040517f08c379a000000000000000000000000000000000000000000000000000000000815260040161318090614f3c565b60405180910390fd5b6000600560003373ffffffffffffffffffffffffffffffffffffffff1673ffffffffffffffffffffffffffffffffffffffff1681526020019081526020016000206000858152602001908152602001600020905060005b81805490508110156132b05783828281548110613200576131ff61479a565b5b9060005260206000209060090201600001540361329d5782600560003373ffffffffffffffffffffffffffffffffffffffff1673ffffffffffffffffffffffffffffffffffffffff1681526020019081526020016000206000878152602001908152602001600020828154811061327a5761327961479a565b5b906000526020600020906009020160040190816132979190614a58565b506132b0565b80806132a8906147f8565b9150506131e0565b5050505050565b60015481565b60008060009054906101000a900473ffffffffffffffffffffffffffffffffffffffff16905090565b60008054906101000a900473ffffffffffffffffffffffffffffffffffffffff1681565b600260205280600052604060002060009150905080600001549080600101805461333390614769565b80601f016020809104026020016040519081016040528092919081815260200182805461335f90614769565b80156133ac5780601f10613381576101008083540402835291602001916133ac565b820191906000526020600020905b81548152906001019060200180831161338f57829003601f168201915b5050505050908060020180546133c190614769565b80601f01602080910402602001604051908101604052809291908181526020018280546133ed90614769565b801561343a5780601f1061340f5761010080835404028352916020019161343a565b820191906000526020600020905b81548152906001019060200180831161341d57829003601f168201915b50505050509080600301805461344f90614769565b80601f016020809104026020016040519081016040528092919081815260200182805461347b90614769565b80156134c85780601f1061349d576101008083540402835291602001916134c8565b820191906000526020600020905b8154815290600101906020018083116134ab57829003601f168201915b5050505050908060040154905085565b60036020528160005260406000206020528060005260406000206000915091509054906101000a900460ff1681565b6040518060c001604052806000815260200160608152602001606081526020016060815260200160008152602001606081525090565b600081519050919050565b600082825260208201905092915050565b6000819050602082019050919050565b6000819050919050565b61357c81613569565b82525050565b600081519050919050565b600082825260208201905092915050565b60005b838110156135bc5780820151818401526020810190506135a1565b60008484015250505050565b6000601f19601f8301169050919050565b60006135e482613582565b6135ee818561358d565b93506135fe81856020860161359e565b613607816135c8565b840191505092915050565b600081519050919050565b600082825260208201905092915050565b6000819050602082019050919050565b60008115159050919050565b6136538161363e565b82525050565b6000610100830160008301516136726000860182613573565b506020830151848203602086015261368a82826135d9565b915050604083015184820360408601526136a482826135d9565b915050606083015184820360608601526136be82826135d9565b915050608083015184820360808601526136d882826135d9565b91505060a083015184820360a08601526136f282826135d9565b91505060c083015161370760c086018261364a565b5060e083015161371a60e0860182613573565b508091505092915050565b60006137318383613659565b905092915050565b6000602082019050919050565b600061375182613612565b61375b818561361d565b93508360208202850161376d8561362e565b8060005b858110156137a9578484038952815161378a8582613725565b945061379583613739565b925060208a01995050600181019050613771565b50829750879550505050505092915050565b600060c0830160008301516137d36000860182613573565b50602083015184820360208601526137eb82826135d9565b9150506040830151848203604086015261380582826135d9565b9150506060830151848203606086015261381f82826135d9565b91505060808301516138346080860182613573565b5060a083015184820360a086015261384c8282613746565b9150508091505092915050565b600061386583836137bb565b905092915050565b6000602082019050919050565b60006138858261353d565b61388f8185613548565b9350836020820285016138a185613559565b8060005b858110156138dd57848403895281516138be8582613859565b94506138c98361386d565b925060208a019950506001810190506138a5565b50829750879550505050505092915050565b60006020820190508181036000830152613909818461387a565b905092915050565b6000604051905090565b600080fd5b600080fd5b600073ffffffffffffffffffffffffffffffffffffffff82169050919050565b600061395082613925565b9050919050565b61396081613945565b811461396b57600080fd5b50565b60008135905061397d81613957565b92915050565b61398c81613569565b811461399757600080fd5b50565b6000813590506139a981613983565b92915050565b6000806000606084860312156139c8576139c761391b565b5b60006139d68682870161396e565b93505060206139e78682870161399a565b92505060406139f88682870161399a565b9150509250925092565b613a0b81613569565b82525050565b600082825260208201905092915050565b6000613a2d82613582565b613a378185613a11565b9350613a4781856020860161359e565b613a50816135c8565b840191505092915050565b613a648161363e565b82525050565b600061012082019050613a80600083018c613a02565b8181036020830152613a92818b613a22565b90508181036040830152613aa6818a613a22565b90508181036060830152613aba8189613a22565b90508181036080830152613ace8188613a22565b905081810360a0830152613ae28187613a22565b9050613af160c0830186613a5b565b613afe60e0830185613a02565b613b0c610100830184613a02565b9a9950505050505050505050565b600060208284031215613b3057613b2f61391b565b5b6000613b3e8482850161399a565b91505092915050565b600060c083016000830151613b5f6000860182613573565b5060208301518482036020860152613b7782826135d9565b91505060408301518482036040860152613b9182826135d9565b91505060608301518482036060860152613bab82826135d9565b9150506080830151613bc06080860182613573565b5060a083015184820360a0860152613bd88282613746565b9150508091505092915050565b60006020820190508181036000830152613bff8184613b47565b905092915050565b600080fd5b600080fd5b7f4e487b7100000000000000000000000000000000000000000000000000000000600052604160045260246000fd5b613c49826135c8565b810181811067ffffffffffffffff82111715613c6857613c67613c11565b5b80604052505050565b6000613c7b613911565b9050613c878282613c40565b919050565b600067ffffffffffffffff821115613ca757613ca6613c11565b5b613cb0826135c8565b9050602081019050919050565b82818337600083830152505050565b6000613cdf613cda84613c8c565b613c71565b905082815260208101848484011115613cfb57613cfa613c0c565b5b613d06848285613cbd565b509392505050565b600082601f830112613d2357613d22613c07565b5b8135613d33848260208601613ccc565b91505092915050565b600067ffffffffffffffff821115613d5757613d56613c11565b5b602082029050602081019050919050565b600080fd5b600080fd5b600080fd5b613d808161363e565b8114613d8b57600080fd5b50565b600081359050613d9d81613d77565b92915050565b60006101008284031215613dba57613db9613d6d565b5b613dc5610100613c71565b90506000613dd58482850161399a565b600083015250602082013567ffffffffffffffff811115613df957613df8613d72565b5b613e0584828501613d0e565b602083015250604082013567ffffffffffffffff811115613e2957613e28613d72565b5b613e3584828501613d0e565b604083015250606082013567ffffffffffffffff811115613e5957613e58613d72565b5b613e6584828501613d0e565b606083015250608082013567ffffffffffffffff811115613e8957613e88613d72565b5b613e9584828501613d0e565b60808301525060a082013567ffffffffffffffff811115613eb957613eb8613d72565b5b613ec584828501613d0e565b60a08301525060c0613ed984828501613d8e565b60c08301525060e0613eed8482850161399a565b60e08301525092915050565b6000613f0c613f0784613d3c565b613c71565b90508083825260208201905060208402830185811115613f2f57613f2e613d68565b5b835b81811015613f7657803567ffffffffffffffff811115613f5457613f53613c07565b5b808601613f618982613da3565b85526020850194505050602081019050613f31565b5050509392505050565b600082601f830112613f9557613f94613c07565b5b8135613fa5848260208601613ef9565b91505092915050565b600080600080600060a08688031215613fca57613fc961391b565b5b600086013567ffffffffffffffff811115613fe857613fe7613920565b5b613ff488828901613d0e565b955050602086013567ffffffffffffffff81111561401557614014613920565b5b61402188828901613d0e565b945050604086013567ffffffffffffffff81111561404257614041613920565b5b61404e88828901613d0e565b935050606061405f8882890161399a565b925050608086013567ffffffffffffffff8111156140805761407f613920565b5b61408c88828901613f80565b9150509295509295909350565b600067ffffffffffffffff8211156140b4576140b3613c11565b5b602082029050602081019050919050565b600061012082840312156140dc576140db613d6d565b5b6140e7610120613c71565b905060006140f78482850161399a565b600083015250602082013567ffffffffffffffff81111561411b5761411a613d72565b5b61412784828501613d0e565b602083015250604082013567ffffffffffffffff81111561414b5761414a613d72565b5b61415784828501613d0e565b604083015250606082013567ffffffffffffffff81111561417b5761417a613d72565b5b61418784828501613d0e565b606083015250608082013567ffffffffffffffff8111156141ab576141aa613d72565b5b6141b784828501613d0e565b60808301525060a082013567ffffffffffffffff8111156141db576141da613d72565b5b6141e784828501613d0e565b60a08301525060c06141fb84828501613d8e565b60c08301525060e061420f8482850161399a565b60e0830152506101006142248482850161399a565b6101008301525092915050565b600061424461423f84614099565b613c71565b9050808382526020820190506020840283018581111561426757614266613d68565b5b835b818110156142ae57803567ffffffffffffffff81111561428c5761428b613c07565b5b80860161429989826140c5565b85526020850194505050602081019050614269565b5050509392505050565b600082601f8301126142cd576142cc613c07565b5b81356142dd848260208601614231565b91505092915050565b6000806000606084860312156142ff576142fe61391b565b5b600061430d8682870161396e565b935050602061431e8682870161399a565b925050604084013567ffffffffffffffff81111561433f5761433e613920565b5b61434b868287016142b8565b9150509250925092565b6000806040838503121561436c5761436b61391b565b5b600061437a8582860161396e565b925050602061438b8582860161399a565b9150509250929050565b600081519050919050565b600082825260208201905092915050565b6000819050602082019050919050565b6000610120830160008301516143da6000860182613573565b50602083015184820360208601526143f282826135d9565b9150506040830151848203604086015261440c82826135d9565b9150506060830151848203606086015261442682826135d9565b9150506080830151848203608086015261444082826135d9565b91505060a083015184820360a086015261445a82826135d9565b91505060c083015161446f60c086018261364a565b5060e083015161448260e0860182613573565b50610100830151614497610100860182613573565b508091505092915050565b60006144ae83836143c1565b905092915050565b6000602082019050919050565b60006144ce82614395565b6144d881856143a0565b9350836020820285016144ea856143b1565b8060005b85811015614526578484038952815161450785826144a2565b9450614512836144b6565b925060208a019950506001810190506144ee565b50829750879550505050505092915050565b6000602082019050818103600083015261455281846144c3565b905092915050565b600060208201905061456f6000830184613a02565b92915050565b60006020828403121561458b5761458a61391b565b5b60006145998482850161396e565b91505092915050565b60006020820190506145b76000830184613a5b565b92915050565b6000806000606084860312156145d6576145d561391b565b5b60006145e48682870161399a565b93505060206145f58682870161399a565b925050604084013567ffffffffffffffff81111561461657614615613920565b5b61462286828701613d0e565b9150509250925092565b61463581613945565b82525050565b6000602082019050614650600083018461462c565b92915050565b600061466182613925565b9050919050565b61467181614656565b82525050565b600060208201905061468c6000830184614668565b92915050565b600060a0820190506146a76000830188613a02565b81810360208301526146b98187613a22565b905081810360408301526146cd8186613a22565b905081810360608301526146e18185613a22565b90506146f06080830184613a02565b9695505050505050565b600080604083850312156147115761471061391b565b5b600061471f8582860161399a565b92505060206147308582860161396e565b9150509250929050565b7f4e487b7100000000000000000000000000000000000000000000000000000000600052602260045260246000fd5b6000600282049050600182168061478157607f821691505b6020821081036147945761479361473a565b5b50919050565b7f4e487b7100000000000000000000000000000000000000000000000000000000600052603260045260246000fd5b7f4e487b7100000000000000000000000000000000000000000000000000000000600052601160045260246000fd5b600061480382613569565b91507fffffffffffffffffffffffffffffffffffffffffffffffffffffffffffffffff8203614835576148346147c9565b5b600182019050919050565b7f4f20637572736f206ec3a36f2065786973746500000000000000000000000000600082015250565b6000614876601383613a11565b915061488182614840565b602082019050919050565b600060208201905081810360008301526148a581614869565b9050919050565b60008190508160005260206000209050919050565b60006020601f8301049050919050565b600082821b905092915050565b60006008830261490e7fffffffffffffffffffffffffffffffffffffffffffffffffffffffffffffffff826148d1565b61491886836148d1565b95508019841693508086168417925050509392505050565b6000819050919050565b600061495561495061494b84613569565b614930565b613569565b9050919050565b6000819050919050565b61496f8361493a565b61498361497b8261495c565b8484546148de565b825550505050565b600090565b61499861498b565b6149a3818484614966565b505050565b5b818110156149c7576149bc600082614990565b6001810190506149a9565b5050565b601f821115614a0c576149dd816148ac565b6149e6846148c1565b810160208510156149f5578190505b614a09614a01856148c1565b8301826149a8565b50505b505050565b600082821c905092915050565b6000614a2f60001984600802614a11565b1980831691505092915050565b6000614a488383614a1e565b9150826002028217905092915050565b614a6182613582565b67ffffffffffffffff811115614a7a57614a79613c11565b5b614a848254614769565b614a8f8282856149cb565b600060209050601f831160018114614ac25760008415614ab0578287015190505b614aba8582614a3c565b865550614b22565b601f198416614ad0866148ac565b60005b82811015614af857848901518255600182019150602085019450602081019050614ad3565b86831015614b155784890151614b11601f891682614a1e565b8355505b6001600288020188555050505b505050505050565b60006080820190508181036000830152614b448187613a22565b90508181036020830152614b588186613a22565b90508181036040830152614b6c8185613a22565b9050614b7b6060830184613a02565b95945050505050565b7f4e6f746173206ec3a36f20666f726e6563696461730000000000000000000000600082015250565b6000614bba601583613a11565b9150614bc582614b84565b602082019050919050565b60006020820190508181036000830152614be981614bad565b9050919050565b7f4f206573747564616e7465206ec3a36f20657374c3a1206d6174726963756c6160008201527f646f206e6573746520637572736f000000000000000000000000000000000000602082015250565b6000614c4c602e83613a11565b9150614c5782614bf0565b604082019050919050565b60006020820190508181036000830152614c7b81614c3f565b9050919050565b7f4ec3ba6d65726f20696e76c3a16c69646f206465206e6f74617320666f726e6560008201527f6369646173000000000000000000000000000000000000000000000000000000602082015250565b6000614cde602583613a11565b9150614ce982614c82565b604082019050919050565b60006020820190508181036000830152614d0d81614cd1565b9050919050565b7f43c3b36469676f20646f206dc3b364756c6f20696e76c3a16c69646f00000000600082015250565b6000614d4a601c83613a11565b9150614d5582614d14565b602082019050919050565b60006020820190508181036000830152614d7981614d3d565b9050919050565b7f566f63c3aa206ac3a120657374c3a1206d6174726963756c61646f206e65737460008201527f6520637572736f00000000000000000000000000000000000000000000000000602082015250565b6000614ddc602783613a11565b9150614de782614d80565b604082019050919050565b60006020820190508181036000830152614e0b81614dcf565b9050919050565b7f4ec3a36f20666f72616d20656e636f6e747261646f7320726567697374726f7360008201527f2070617261206573746520616c756e6f206e6f20637572736f2065737065636960208201527f66696361646f2e00000000000000000000000000000000000000000000000000604082015250565b6000614e94604783613a11565b9150614e9f82614e12565b606082019050919050565b60006020820190508181036000830152614ec381614e87565b9050919050565b7f566f63c3aa206ec3a36f20657374c3a1206d6174726963756c61646f206e657360008201527f746520637572736f000000000000000000000000000000000000000000000000602082015250565b6000614f26602883613a11565b9150614f3182614eca565b604082019050919050565b60006020820190508181036000830152614f5581614f19565b905091905056fea2646970667358221220bada8cf0d3bd96196370b9c155348ab903076ba9fb87ce4c04e60bc28842e40b64736f6c63430008140033",
  "linkReferences": {},
  "deployedLinkReferences": {}
}