{
  "_format": "hh-sol-artifact-1",
  "contractName": "CertificateNFT",
  "sourceName": "contracts/CertificateNFT.sol",
  "abi": [
    {
      "inputs": [
        {
          "internalType": "address",
          "name": "academicManagerAddress",
          "type": "address"
        }
      ],
      "stateMutability": "nonpayable",
      "type": "constructor"
    },
    {
      "anonymous": false,
      "inputs": [
        {
          "indexed": true,
          "internalType": "address",
          "name": "owner",
          "type": "address"
        },
        {
          "indexed": true,
          "internalType": "address",
          "name": "approved",
          "type": "address"
        },
        {
          "indexed": true,
          "internalType": "uint256",
          "name": "tokenId",
          "type": "uint256"
        }
      ],
      "name": "Approval",
      "type": "event"
    },
    {
      "anonymous": false,
      "inputs": [
        {
          "indexed": true,
          "internalType": "address",
          "name": "owner",
          "type": "address"
        },
        {
          "indexed": true,
          "internalType": "address",
          "name": "operator",
          "type": "address"
        },
        {
          "indexed": false,
          "internalType": "bool",
          "name": "approved",
          "type": "bool"
        }
      ],
      "name": "ApprovalForAll",
      "type": "event"
    },
    {
      "anonymous": false,
      "inputs": [
        {
          "indexed": false,
          "internalType": "uint256",
          "name": "_fromTokenId",
          "type": "uint256"
        },
        {
          "indexed": false,
          "internalType": "uint256",
          "name": "_toTokenId",
          "type": "uint256"
        }
      ],
      "name": "BatchMetadataUpdate",
      "type": "event"
    },
    {
      "anonymous": false,
      "inputs": [
        {
          "indexed": false,
          "internalType": "uint256",
          "name": "_tokenId",
          "type": "uint256"
        }
      ],
      "name": "MetadataUpdate",
      "type": "event"
    },
    {
      "anonymous": false,
      "inputs": [
        {
          "indexed": true,
          "internalType": "address",
          "name": "from",
          "type": "address"
        },
        {
          "indexed": true,
          "internalType": "address",
          "name": "to",
          "type": "address"
        },
        {
          "indexed": true,
          "internalType": "uint256",
          "name": "tokenId",
          "type": "uint256"
        }
      ],
      "name": "Transfer",
      "type": "event"
    },
    {
      "inputs": [],
      "name": "ACADEMIC_MANAGER_ADDRESS",
      "outputs": [
        {
          "internalType": "address",
          "name": "",
          "type": "address"
        }
      ],
      "stateMutability": "view",
      "type": "function"
    },
    {
      "inputs": [],
      "name": "_tokenIds",
      "outputs": [
        {
          "internalType": "uint256",
          "name": "_value",
          "type": "uint256"
        }
      ],
      "stateMutability": "view",
      "type": "function"
    },
    {
      "inputs": [
        {
          "internalType": "address",
          "name": "to",
          "type": "address"
        },
        {
          "internalType": "uint256",
          "name": "tokenId",
          "type": "uint256"
        }
      ],
      "name": "approve",
      "outputs": [],
      "stateMutability": "nonpayable",
      "type": "function"
    },
    {
      "inputs": [
        {
          "internalType": "address",
          "name": "owner",
          "type": "address"
        }
      ],
      "name": "balanceOf",
      "outputs": [
        {
          "internalType": "uint256",
          "name": "",
          "type": "uint256"
        }
      ],
      "stateMutability": "view",
      "type": "function"
    },
    {
      "inputs": [
        {
          "internalType": "uint256",
          "name": "",
          "type": "uint256"
        },
        {
          "internalType": "address",
          "name": "",
          "type": "address"
        }
      ],
      "name": "certificatedMinted",
      "outputs": [
        {
          "internalType": "bool",
          "name": "",
          "type": "bool"
        }
      ],
      "stateMutability": "view",
      "type": "function"
    },
    {
      "inputs": [
        {
          "internalType": "uint256",
          "name": "courseId",
          "type": "uint256"
        }
      ],
      "name": "generateCertificate",
      "outputs": [
        {
          "internalType": "uint256",
          "name": "",
          "type": "uint256"
        }
      ],
      "stateMutability": "nonpayable",
      "type": "function"
    },
    {
      "inputs": [
        {
          "internalType": "uint256",
          "name": "tokenId",
          "type": "uint256"
        }
      ],
      "name": "getApproved",
      "outputs": [
        {
          "internalType": "address",
          "name": "",
          "type": "address"
        }
      ],
      "stateMutability": "view",
      "type": "function"
    },
    {
      "inputs": [
        {
          "internalType": "address",
          "name": "owner",
          "type": "address"
        },
        {
          "internalType": "address",
          "name": "operator",
          "type": "address"
        }
      ],
      "name": "isApprovedForAll",
      "outputs": [
        {
          "internalType": "bool",
          "name": "",
          "type": "bool"
        }
      ],
      "stateMutability": "view",
      "type": "function"
    },
    {
      "inputs": [],
      "name": "name",
      "outputs": [
        {
          "internalType": "string",
          "name": "",
          "type": "string"
        }
      ],
      "stateMutability": "view",
      "type": "function"
    },
    {
      "inputs": [
        {
          "internalType": "uint256",
          "name": "tokenId",
          "type": "uint256"
        }
      ],
      "name": "ownerOf",
      "outputs": [
        {
          "internalType": "address",
          "name": "",
          "type": "address"
        }
      ],
      "stateMutability": "view",
      "type": "function"
    },
    {
      "inputs": [
        {
          "internalType": "address",
          "name": "from",
          "type": "address"
        },
        {
          "internalType": "address",
          "name": "to",
          "type": "address"
        },
        {
          "internalType": "uint256",
          "name": "tokenId",
          "type": "uint256"
        }
      ],
      "name": "safeTransferFrom",
      "outputs": [],
      "stateMutability": "nonpayable",
      "type": "function"
    },
    {
      "inputs": [
        {
          "internalType": "address",
          "name": "from",
          "type": "address"
        },
        {
          "internalType": "address",
          "name": "to",
          "type": "address"
        },
        {
          "internalType": "uint256",
          "name": "tokenId",
          "type": "uint256"
        },
        {
          "internalType": "bytes",
          "name": "data",
          "type": "bytes"
        }
      ],
      "name": "safeTransferFrom",
      "outputs": [],
      "stateMutability": "nonpayable",
      "type": "function"
    },
    {
      "inputs": [
        {
          "internalType": "address",
          "name": "operator",
          "type": "address"
        },
        {
          "internalType": "bool",
          "name": "approved",
          "type": "bool"
        }
      ],
      "name": "setApprovalForAll",
      "outputs": [],
      "stateMutability": "nonpayable",
      "type": "function"
    },
    {
      "inputs": [
        {
          "internalType": "bytes4",
          "name": "interfaceId",
          "type": "bytes4"
        }
      ],
      "name": "supportsInterface",
      "outputs": [
        {
          "internalType": "bool",
          "name": "",
          "type": "bool"
        }
      ],
      "stateMutability": "view",
      "type": "function"
    },
    {
      "inputs": [],
      "name": "symbol",
      "outputs": [
        {
          "internalType": "string",
          "name": "",
          "type": "string"
        }
      ],
      "stateMutability": "view",
      "type": "function"
    },
    {
      "inputs": [
        {
          "internalType": "uint256",
          "name": "tokenId",
          "type": "uint256"
        }
      ],
      "name": "tokenURI",
      "outputs": [
        {
          "internalType": "string",
          "name": "",
          "type": "string"
        }
      ],
      "stateMutability": "view",
      "type": "function"
    },
    {
      "inputs": [
        {
          "internalType": "address",
          "name": "from",
          "type": "address"
        },
        {
          "internalType": "address",
          "name": "to",
          "type": "address"
        },
        {
          "internalType": "uint256",
          "name": "tokenId",
          "type": "uint256"
        }
      ],
      "name": "transferFrom",
      "outputs": [],
      "stateMutability": "nonpayable",
      "type": "function"
    }
  ],
  "bytecode": "0x60a06040523480156200001157600080fd5b50604051620038323803806200383283398181016040528101906200003791906200016e565b6040518060400160405280600e81526020017f43657274696669636174654e46540000000000000000000000000000000000008152506040518060400160405280600481526020017f434e4654000000000000000000000000000000000000000000000000000000008152508160009081620000b491906200041a565b508060019081620000c691906200041a565b5050508073ffffffffffffffffffffffffffffffffffffffff1660808173ffffffffffffffffffffffffffffffffffffffff16815250505062000501565b600080fd5b600073ffffffffffffffffffffffffffffffffffffffff82169050919050565b6000620001368262000109565b9050919050565b620001488162000129565b81146200015457600080fd5b50565b60008151905062000168816200013d565b92915050565b60006020828403121562000187576200018662000104565b5b6000620001978482850162000157565b91505092915050565b600081519050919050565b7f4e487b7100000000000000000000000000000000000000000000000000000000600052604160045260246000fd5b7f4e487b7100000000000000000000000000000000000000000000000000000000600052602260045260246000fd5b600060028204905060018216806200022257607f821691505b602082108103620002385762000237620001da565b5b50919050565b60008190508160005260206000209050919050565b60006020601f8301049050919050565b600082821b905092915050565b600060088302620002a27fffffffffffffffffffffffffffffffffffffffffffffffffffffffffffffffff8262000263565b620002ae868362000263565b95508019841693508086168417925050509392505050565b6000819050919050565b6000819050919050565b6000620002fb620002f5620002ef84620002c6565b620002d0565b620002c6565b9050919050565b6000819050919050565b6200031783620002da565b6200032f620003268262000302565b84845462000270565b825550505050565b600090565b6200034662000337565b620003538184846200030c565b505050565b5b818110156200037b576200036f6000826200033c565b60018101905062000359565b5050565b601f821115620003ca5762000394816200023e565b6200039f8462000253565b81016020851015620003af578190505b620003c7620003be8562000253565b83018262000358565b50505b505050565b600082821c905092915050565b6000620003ef60001984600802620003cf565b1980831691505092915050565b60006200040a8383620003dc565b9150826002028217905092915050565b6200042582620001a0565b67ffffffffffffffff811115620004415762000440620001ab565b5b6200044d825462000209565b6200045a8282856200037f565b600060209050601f8311600181146200049257600084156200047d578287015190505b620004898582620003fc565b865550620004f9565b601f198416620004a2866200023e565b60005b82811015620004cc57848901518255600182019150602085019450602081019050620004a5565b86831015620004ec5784890151620004e8601f891682620003dc565b8355505b6001600288020188555050505b505050505050565b6080516133076200052b600039600081816105e60152818161071301526108af01526133076000f3fe608060405234801561001057600080fd5b506004361061010b5760003560e01c8063648f8aa9116100a2578063aa46a40011610071578063aa46a400146102ca578063b45b877d146102e8578063b88d4fde14610318578063c87b56dd14610334578063e985e9c5146103645761010b565b8063648f8aa91461023057806370a082311461026057806395d89b4114610290578063a22cb465146102ae5761010b565b80631cfab597116100de5780631cfab597146101aa57806323b872dd146101c857806342842e0e146101e45780636352211e146102005761010b565b806301ffc9a71461011057806306fdde0314610140578063081812fc1461015e578063095ea7b31461018e575b600080fd5b61012a60048036038101906101259190611d4f565b610394565b6040516101379190611d97565b60405180910390f35b6101486103f5565b6040516101559190611e42565b60405180910390f35b61017860048036038101906101739190611e9a565b610487565b6040516101859190611f08565b60405180910390f35b6101a860048036038101906101a39190611f4f565b6104cd565b005b6101b26105e4565b6040516101bf9190611f08565b60405180910390f35b6101e260048036038101906101dd9190611f8f565b610608565b005b6101fe60048036038101906101f99190611f8f565b610668565b005b61021a60048036038101906102159190611e9a565b610688565b6040516102279190611f08565b60405180910390f35b61024a60048036038101906102459190611e9a565b61070e565b6040516102579190611ff1565b60405180910390f35b61027a6004803603810190610275919061200c565b6109da565b6040516102879190611ff1565b60405180910390f35b610298610a91565b6040516102a59190611e42565b60405180910390f35b6102c860048036038101906102c39190612065565b610b23565b005b6102d2610b39565b6040516102df9190611ff1565b60405180910390f35b61030260048036038101906102fd91906120a5565b610b45565b60405161030f9190611d97565b60405180910390f35b610332600480360381019061032d919061221a565b610b74565b005b61034e60048036038101906103499190611e9a565b610bd6565b60405161035b9190611e42565b60405180910390f35b61037e6004803603810190610379919061229d565b610ce8565b60405161038b9190611d97565b60405180910390f35b6000634906490660e01b7bffffffffffffffffffffffffffffffffffffffffffffffffffffffff1916827bffffffffffffffffffffffffffffffffffffffffffffffffffffffff191614806103ee57506103ed82610d7c565b5b9050919050565b6060600080546104049061230c565b80601f01602080910402602001604051908101604052809291908181526020018280546104309061230c565b801561047d5780601f106104525761010080835404028352916020019161047d565b820191906000526020600020905b81548152906001019060200180831161046057829003601f168201915b5050505050905090565b600061049282610e5e565b6004600083815260200190815260200160002060009054906101000a900473ffffffffffffffffffffffffffffffffffffffff169050919050565b60006104d882610688565b90508073ffffffffffffffffffffffffffffffffffffffff168373ffffffffffffffffffffffffffffffffffffffff1603610548576040517f08c379a000000000000000000000000000000000000000000000000000000000815260040161053f906123af565b60405180910390fd5b8073ffffffffffffffffffffffffffffffffffffffff16610567610ea9565b73ffffffffffffffffffffffffffffffffffffffff161480610596575061059581610590610ea9565b610ce8565b5b6105d5576040517f08c379a00000000000000000000000000000000000000000000000000000000081526004016105cc90612441565b60405180910390fd5b6105df8383610eb1565b505050565b7f000000000000000000000000000000000000000000000000000000000000000081565b610619610613610ea9565b82610f6a565b610658576040517f08c379a000000000000000000000000000000000000000000000000000000000815260040161064f906124d3565b60405180910390fd5b610663838383610fff565b505050565b61068383838360405180602001604052806000815250610b74565b505050565b600080610694836112f8565b9050600073ffffffffffffffffffffffffffffffffffffffff168173ffffffffffffffffffffffffffffffffffffffff1603610705576040517f08c379a00000000000000000000000000000000000000000000000000000000081526004016106fc9061253f565b60405180910390fd5b80915050919050565b6000807f000000000000000000000000000000000000000000000000000000000000000073ffffffffffffffffffffffffffffffffffffffff166371196f6433856040518363ffffffff1660e01b815260040161076c92919061255f565b602060405180830381865afa158015610789573d6000803e3d6000fd5b505050506040513d601f19601f820116820180604052508101906107ad919061259d565b9050806107ef576040517f08c379a00000000000000000000000000000000000000000000000000000000081526004016107e690612662565b60405180910390fd5b600015156008600085815260200190815260200160002060003373ffffffffffffffffffffffffffffffffffffffff1673ffffffffffffffffffffffffffffffffffffffff16815260200190815260200160002060009054906101000a900460ff16151514610893576040517f08c379a000000000000000000000000000000000000000000000000000000000815260040161088a906126f4565b60405180910390fd5b61089d6007611335565b60006108a9600761134b565b905060007f000000000000000000000000000000000000000000000000000000000000000073ffffffffffffffffffffffffffffffffffffffff16630b91e28d866040518263ffffffff1660e01b81526004016109069190611ff1565b600060405180830381865afa158015610923573d6000803e3d6000fd5b505050506040513d6000823e3d601f19601f8201168201806040525081019061094c9190612a7a565b905060016008600087815260200190815260200160002060003373ffffffffffffffffffffffffffffffffffffffff1673ffffffffffffffffffffffffffffffffffffffff16815260200190815260200160002060006101000a81548160ff0219169083151502179055506109c13383611359565b6109cf828260600151611576565b819350505050919050565b60008073ffffffffffffffffffffffffffffffffffffffff168273ffffffffffffffffffffffffffffffffffffffff1603610a4a576040517f08c379a0000000000000000000000000000000000000000000000000000000008152600401610a4190612b35565b60405180910390fd5b600360008373ffffffffffffffffffffffffffffffffffffffff1673ffffffffffffffffffffffffffffffffffffffff168152602001908152602001600020549050919050565b606060018054610aa09061230c565b80601f0160208091040260200160405190810160405280929190818152602001828054610acc9061230c565b8015610b195780601f10610aee57610100808354040283529160200191610b19565b820191906000526020600020905b815481529060010190602001808311610afc57829003601f168201915b5050505050905090565b610b35610b2e610ea9565b838361161a565b5050565b60078060000154905081565b60086020528160005260406000206020528060005260406000206000915091509054906101000a900460ff1681565b610b85610b7f610ea9565b83610f6a565b610bc4576040517f08c379a0000000000000000000000000000000000000000000000000000000008152600401610bbb906124d3565b60405180910390fd5b610bd084848484611786565b50505050565b6060610be182610e5e565b6000600660008481526020019081526020016000208054610c019061230c565b80601f0160208091040260200160405190810160405280929190818152602001828054610c2d9061230c565b8015610c7a5780601f10610c4f57610100808354040283529160200191610c7a565b820191906000526020600020905b815481529060010190602001808311610c5d57829003601f168201915b505050505090506000610c8b6117e2565b90506000815103610ca0578192505050610ce3565b600082511115610cd5578082604051602001610cbd929190612b91565b60405160208183030381529060405292505050610ce3565b610cde846117f9565b925050505b919050565b6000600560008473ffffffffffffffffffffffffffffffffffffffff1673ffffffffffffffffffffffffffffffffffffffff16815260200190815260200160002060008373ffffffffffffffffffffffffffffffffffffffff1673ffffffffffffffffffffffffffffffffffffffff16815260200190815260200160002060009054906101000a900460ff16905092915050565b60007f80ac58cd000000000000000000000000000000000000000000000000000000007bffffffffffffffffffffffffffffffffffffffffffffffffffffffff1916827bffffffffffffffffffffffffffffffffffffffffffffffffffffffff19161480610e4757507f5b5e139f000000000000000000000000000000000000000000000000000000007bffffffffffffffffffffffffffffffffffffffffffffffffffffffff1916827bffffffffffffffffffffffffffffffffffffffffffffffffffffffff1916145b80610e575750610e5682611861565b5b9050919050565b610e67816118cb565b610ea6576040517f08c379a0000000000000000000000000000000000000000000000000000000008152600401610e9d9061253f565b60405180910390fd5b50565b600033905090565b816004600083815260200190815260200160002060006101000a81548173ffffffffffffffffffffffffffffffffffffffff021916908373ffffffffffffffffffffffffffffffffffffffff160217905550808273ffffffffffffffffffffffffffffffffffffffff16610f2483610688565b73ffffffffffffffffffffffffffffffffffffffff167f8c5be1e5ebec7d5bd14f71427d1e84f3dd0314c0f7b2291e5b200ac8c7c3b92560405160405180910390a45050565b600080610f7683610688565b90508073ffffffffffffffffffffffffffffffffffffffff168473ffffffffffffffffffffffffffffffffffffffff161480610fb85750610fb78185610ce8565b5b80610ff657508373ffffffffffffffffffffffffffffffffffffffff16610fde84610487565b73ffffffffffffffffffffffffffffffffffffffff16145b91505092915050565b8273ffffffffffffffffffffffffffffffffffffffff1661101f82610688565b73ffffffffffffffffffffffffffffffffffffffff1614611075576040517f08c379a000000000000000000000000000000000000000000000000000000000815260040161106c90612c27565b60405180910390fd5b600073ffffffffffffffffffffffffffffffffffffffff168273ffffffffffffffffffffffffffffffffffffffff16036110e4576040517f08c379a00000000000000000000000000000000000000000000000000000000081526004016110db90612cb9565b60405180910390fd5b6110f1838383600161190c565b8273ffffffffffffffffffffffffffffffffffffffff1661111182610688565b73ffffffffffffffffffffffffffffffffffffffff1614611167576040517f08c379a000000000000000000000000000000000000000000000000000000000815260040161115e90612c27565b60405180910390fd5b6004600082815260200190815260200160002060006101000a81549073ffffffffffffffffffffffffffffffffffffffff02191690556001600360008573ffffffffffffffffffffffffffffffffffffffff1673ffffffffffffffffffffffffffffffffffffffff168152602001908152602001600020600082825403925050819055506001600360008473ffffffffffffffffffffffffffffffffffffffff1673ffffffffffffffffffffffffffffffffffffffff16815260200190815260200160002060008282540192505081905550816002600083815260200190815260200160002060006101000a81548173ffffffffffffffffffffffffffffffffffffffff021916908373ffffffffffffffffffffffffffffffffffffffff160217905550808273ffffffffffffffffffffffffffffffffffffffff168473ffffffffffffffffffffffffffffffffffffffff167fddf252ad1be2c89b69c2b068fc378daa952ba7f163c4a11628f55a4df523b3ef60405160405180910390a46112f38383836001611912565b505050565b60006002600083815260200190815260200160002060009054906101000a900473ffffffffffffffffffffffffffffffffffffffff169050919050565b6001816000016000828254019250508190555050565b600081600001549050919050565b600073ffffffffffffffffffffffffffffffffffffffff168273ffffffffffffffffffffffffffffffffffffffff16036113c8576040517f08c379a00000000000000000000000000000000000000000000000000000000081526004016113bf90612d25565b60405180910390fd5b6113d1816118cb565b15611411576040517f08c379a000000000000000000000000000000000000000000000000000000000815260040161140890612d91565b60405180910390fd5b61141f60008383600161190c565b611428816118cb565b15611468576040517f08c379a000000000000000000000000000000000000000000000000000000000815260040161145f90612d91565b60405180910390fd5b6001600360008473ffffffffffffffffffffffffffffffffffffffff1673ffffffffffffffffffffffffffffffffffffffff16815260200190815260200160002060008282540192505081905550816002600083815260200190815260200160002060006101000a81548173ffffffffffffffffffffffffffffffffffffffff021916908373ffffffffffffffffffffffffffffffffffffffff160217905550808273ffffffffffffffffffffffffffffffffffffffff16600073ffffffffffffffffffffffffffffffffffffffff167fddf252ad1be2c89b69c2b068fc378daa952ba7f163c4a11628f55a4df523b3ef60405160405180910390a4611572600083836001611912565b5050565b61157f826118cb565b6115be576040517f08c379a00000000000000000000000000000000000000000000000000000000081526004016115b590612e23565b60405180910390fd5b806006600084815260200190815260200160002090816115de9190612fef565b507ff8e1a15aba9398e019f0b49df1a4fde98ee17ae345cb5f6b5e2c27f5033e8ce78260405161160e9190611ff1565b60405180910390a15050565b8173ffffffffffffffffffffffffffffffffffffffff168373ffffffffffffffffffffffffffffffffffffffff1603611688576040517f08c379a000000000000000000000000000000000000000000000000000000000815260040161167f9061310d565b60405180910390fd5b80600560008573ffffffffffffffffffffffffffffffffffffffff1673ffffffffffffffffffffffffffffffffffffffff16815260200190815260200160002060008473ffffffffffffffffffffffffffffffffffffffff1673ffffffffffffffffffffffffffffffffffffffff16815260200190815260200160002060006101000a81548160ff0219169083151502179055508173ffffffffffffffffffffffffffffffffffffffff168373ffffffffffffffffffffffffffffffffffffffff167f17307eab39ab6107e8899845ad3d59bd9653f200f220920489ca2b5937696c31836040516117799190611d97565b60405180910390a3505050565b611791848484610fff565b61179d84848484611918565b6117dc576040517f08c379a00000000000000000000000000000000000000000000000000000000081526004016117d39061319f565b60405180910390fd5b50505050565b606060405180602001604052806000815250905090565b606061180482610e5e565b600061180e6117e2565b9050600081511161182e5760405180602001604052806000815250611859565b8061183884611a9f565b604051602001611849929190612b91565b6040516020818303038152906040525b915050919050565b60007f01ffc9a7000000000000000000000000000000000000000000000000000000007bffffffffffffffffffffffffffffffffffffffffffffffffffffffff1916827bffffffffffffffffffffffffffffffffffffffffffffffffffffffff1916149050919050565b60008073ffffffffffffffffffffffffffffffffffffffff166118ed836112f8565b73ffffffffffffffffffffffffffffffffffffffff1614159050919050565b50505050565b50505050565b60006119398473ffffffffffffffffffffffffffffffffffffffff16611b6d565b15611a92578373ffffffffffffffffffffffffffffffffffffffff1663150b7a02611962610ea9565b8786866040518563ffffffff1660e01b81526004016119849493929190613214565b6020604051808303816000875af19250505080156119c057506040513d601f19601f820116820180604052508101906119bd9190613275565b60015b611a42573d80600081146119f0576040519150601f19603f3d011682016040523d82523d6000602084013e6119f5565b606091505b506000815103611a3a576040517f08c379a0000000000000000000000000000000000000000000000000000000008152600401611a319061319f565b60405180910390fd5b805181602001fd5b63150b7a0260e01b7bffffffffffffffffffffffffffffffffffffffffffffffffffffffff1916817bffffffffffffffffffffffffffffffffffffffffffffffffffffffff191614915050611a97565b600190505b949350505050565b606060006001611aae84611b90565b01905060008167ffffffffffffffff811115611acd57611acc6120ef565b5b6040519080825280601f01601f191660200182016040528015611aff5781602001600182028036833780820191505090505b509050600082602001820190505b600115611b62578080600190039150507f3031323334353637383961626364656600000000000000000000000000000000600a86061a8153600a8581611b5657611b556132a2565b5b04945060008503611b0d575b819350505050919050565b6000808273ffffffffffffffffffffffffffffffffffffffff163b119050919050565b600080600090507a184f03e93ff9f4daa797ed6e38ed64bf6a1f0100000000000000008310611bee577a184f03e93ff9f4daa797ed6e38ed64bf6a1f0100000000000000008381611be457611be36132a2565b5b0492506040810190505b6d04ee2d6d415b85acef81000000008310611c2b576d04ee2d6d415b85acef81000000008381611c2157611c206132a2565b5b0492506020810190505b662386f26fc100008310611c5a57662386f26fc100008381611c5057611c4f6132a2565b5b0492506010810190505b6305f5e1008310611c83576305f5e1008381611c7957611c786132a2565b5b0492506008810190505b6127108310611ca8576127108381611c9e57611c9d6132a2565b5b0492506004810190505b60648310611ccb5760648381611cc157611cc06132a2565b5b0492506002810190505b600a8310611cda576001810190505b80915050919050565b6000604051905090565b600080fd5b600080fd5b60007fffffffff0000000000000000000000000000000000000000000000000000000082169050919050565b611d2c81611cf7565b8114611d3757600080fd5b50565b600081359050611d4981611d23565b92915050565b600060208284031215611d6557611d64611ced565b5b6000611d7384828501611d3a565b91505092915050565b60008115159050919050565b611d9181611d7c565b82525050565b6000602082019050611dac6000830184611d88565b92915050565b600081519050919050565b600082825260208201905092915050565b60005b83811015611dec578082015181840152602081019050611dd1565b60008484015250505050565b6000601f19601f8301169050919050565b6000611e1482611db2565b611e1e8185611dbd565b9350611e2e818560208601611dce565b611e3781611df8565b840191505092915050565b60006020820190508181036000830152611e5c8184611e09565b905092915050565b6000819050919050565b611e7781611e64565b8114611e8257600080fd5b50565b600081359050611e9481611e6e565b92915050565b600060208284031215611eb057611eaf611ced565b5b6000611ebe84828501611e85565b91505092915050565b600073ffffffffffffffffffffffffffffffffffffffff82169050919050565b6000611ef282611ec7565b9050919050565b611f0281611ee7565b82525050565b6000602082019050611f1d6000830184611ef9565b92915050565b611f2c81611ee7565b8114611f3757600080fd5b50565b600081359050611f4981611f23565b92915050565b60008060408385031215611f6657611f65611ced565b5b6000611f7485828601611f3a565b9250506020611f8585828601611e85565b9150509250929050565b600080600060608486031215611fa857611fa7611ced565b5b6000611fb686828701611f3a565b9350506020611fc786828701611f3a565b9250506040611fd886828701611e85565b9150509250925092565b611feb81611e64565b82525050565b60006020820190506120066000830184611fe2565b92915050565b60006020828403121561202257612021611ced565b5b600061203084828501611f3a565b91505092915050565b61204281611d7c565b811461204d57600080fd5b50565b60008135905061205f81612039565b92915050565b6000806040838503121561207c5761207b611ced565b5b600061208a85828601611f3a565b925050602061209b85828601612050565b9150509250929050565b600080604083850312156120bc576120bb611ced565b5b60006120ca85828601611e85565b92505060206120db85828601611f3a565b9150509250929050565b600080fd5b600080fd5b7f4e487b7100000000000000000000000000000000000000000000000000000000600052604160045260246000fd5b61212782611df8565b810181811067ffffffffffffffff82111715612146576121456120ef565b5b80604052505050565b6000612159611ce3565b9050612165828261211e565b919050565b600067ffffffffffffffff821115612185576121846120ef565b5b61218e82611df8565b9050602081019050919050565b82818337600083830152505050565b60006121bd6121b88461216a565b61214f565b9050828152602081018484840111156121d9576121d86120ea565b5b6121e484828561219b565b509392505050565b600082601f830112612201576122006120e5565b5b81356122118482602086016121aa565b91505092915050565b6000806000806080858703121561223457612233611ced565b5b600061224287828801611f3a565b945050602061225387828801611f3a565b935050604061226487828801611e85565b925050606085013567ffffffffffffffff81111561228557612284611cf2565b5b612291878288016121ec565b91505092959194509250565b600080604083850312156122b4576122b3611ced565b5b60006122c285828601611f3a565b92505060206122d385828601611f3a565b9150509250929050565b7f4e487b7100000000000000000000000000000000000000000000000000000000600052602260045260246000fd5b6000600282049050600182168061232457607f821691505b602082108103612337576123366122dd565b5b50919050565b7f4552433732313a20617070726f76616c20746f2063757272656e74206f776e6560008201527f7200000000000000000000000000000000000000000000000000000000000000602082015250565b6000612399602183611dbd565b91506123a48261233d565b604082019050919050565b600060208201905081810360008301526123c88161238c565b9050919050565b7f4552433732313a20617070726f76652063616c6c6572206973206e6f7420746f60008201527f6b656e206f776e6572206f7220617070726f76656420666f7220616c6c000000602082015250565b600061242b603d83611dbd565b9150612436826123cf565b604082019050919050565b6000602082019050818103600083015261245a8161241e565b9050919050565b7f4552433732313a2063616c6c6572206973206e6f7420746f6b656e206f776e6560008201527f72206f7220617070726f76656400000000000000000000000000000000000000602082015250565b60006124bd602d83611dbd565b91506124c882612461565b604082019050919050565b600060208201905081810360008301526124ec816124b0565b9050919050565b7f4552433732313a20696e76616c696420746f6b656e2049440000000000000000600082015250565b6000612529601883611dbd565b9150612534826124f3565b602082019050919050565b600060208201905081810360008301526125588161251c565b9050919050565b60006040820190506125746000830185611ef9565b6125816020830184611fe2565b9392505050565b60008151905061259781612039565b92915050565b6000602082840312156125b3576125b2611ced565b5b60006125c184828501612588565b91505092915050565b7f566f63c3aa2061696e6461206ec3a36f2074656d20706f6e747561c3a7c3a36f60008201527f20737566696369656e74652070617261206d696e746172206f2063657274696660208201527f696361646f000000000000000000000000000000000000000000000000000000604082015250565b600061264c604583611dbd565b9150612657826125ca565b606082019050919050565b6000602082019050818103600083015261267b8161263f565b9050919050565b7f4ec3a36f20c3a920706f7373c3ad76656c206d696e746172206f206d65736d6f60008201527f20636572746966696361646f20647561732076657a6573000000000000000000602082015250565b60006126de603783611dbd565b91506126e982612682565b604082019050919050565b6000602082019050818103600083015261270d816126d1565b9050919050565b600080fd5b600080fd5b60008151905061272d81611e6e565b92915050565b600067ffffffffffffffff82111561274e5761274d6120ef565b5b61275782611df8565b9050602081019050919050565b600061277761277284612733565b61214f565b905082815260208101848484011115612793576127926120ea565b5b61279e848285611dce565b509392505050565b600082601f8301126127bb576127ba6120e5565b5b81516127cb848260208601612764565b91505092915050565b600067ffffffffffffffff8211156127ef576127ee6120ef565b5b602082029050602081019050919050565b600080fd5b600060a0828403121561281b5761281a612714565b5b61282560a061214f565b905060006128358482850161271e565b600083015250602082015167ffffffffffffffff81111561285957612858612719565b5b612865848285016127a6565b602083015250604082015167ffffffffffffffff81111561288957612888612719565b5b612895848285016127a6565b60408301525060606128a984828501612588565b60608301525060806128bd8482850161271e565b60808301525092915050565b60006128dc6128d7846127d4565b61214f565b905080838252602082019050602084028301858111156128ff576128fe612800565b5b835b8181101561294657805167ffffffffffffffff811115612924576129236120e5565b5b8086016129318982612805565b85526020850194505050602081019050612901565b5050509392505050565b600082601f830112612965576129646120e5565b5b81516129758482602086016128c9565b91505092915050565b600060a0828403121561299457612993612714565b5b61299e60a061214f565b905060006129ae8482850161271e565b600083015250602082015167ffffffffffffffff8111156129d2576129d1612719565b5b6129de848285016127a6565b602083015250604082015167ffffffffffffffff811115612a0257612a01612719565b5b612a0e848285016127a6565b604083015250606082015167ffffffffffffffff811115612a3257612a31612719565b5b612a3e848285016127a6565b606083015250608082015167ffffffffffffffff811115612a6257612a61612719565b5b612a6e84828501612950565b60808301525092915050565b600060208284031215612a9057612a8f611ced565b5b600082015167ffffffffffffffff811115612aae57612aad611cf2565b5b612aba8482850161297e565b91505092915050565b7f4552433732313a2061646472657373207a65726f206973206e6f74206120766160008201527f6c6964206f776e65720000000000000000000000000000000000000000000000602082015250565b6000612b1f602983611dbd565b9150612b2a82612ac3565b604082019050919050565b60006020820190508181036000830152612b4e81612b12565b9050919050565b600081905092915050565b6000612b6b82611db2565b612b758185612b55565b9350612b85818560208601611dce565b80840191505092915050565b6000612b9d8285612b60565b9150612ba98284612b60565b91508190509392505050565b7f4552433732313a207472616e736665722066726f6d20696e636f72726563742060008201527f6f776e6572000000000000000000000000000000000000000000000000000000602082015250565b6000612c11602583611dbd565b9150612c1c82612bb5565b604082019050919050565b60006020820190508181036000830152612c4081612c04565b9050919050565b7f4552433732313a207472616e7366657220746f20746865207a65726f2061646460008201527f7265737300000000000000000000000000000000000000000000000000000000602082015250565b6000612ca3602483611dbd565b9150612cae82612c47565b604082019050919050565b60006020820190508181036000830152612cd281612c96565b9050919050565b7f4552433732313a206d696e7420746f20746865207a65726f2061646472657373600082015250565b6000612d0f602083611dbd565b9150612d1a82612cd9565b602082019050919050565b60006020820190508181036000830152612d3e81612d02565b9050919050565b7f4552433732313a20746f6b656e20616c7265616479206d696e74656400000000600082015250565b6000612d7b601c83611dbd565b9150612d8682612d45565b602082019050919050565b60006020820190508181036000830152612daa81612d6e565b9050919050565b7f45524337323155524953746f726167653a2055524920736574206f66206e6f6e60008201527f6578697374656e7420746f6b656e000000000000000000000000000000000000602082015250565b6000612e0d602e83611dbd565b9150612e1882612db1565b604082019050919050565b60006020820190508181036000830152612e3c81612e00565b9050919050565b60008190508160005260206000209050919050565b60006020601f8301049050919050565b600082821b905092915050565b600060088302612ea57fffffffffffffffffffffffffffffffffffffffffffffffffffffffffffffffff82612e68565b612eaf8683612e68565b95508019841693508086168417925050509392505050565b6000819050919050565b6000612eec612ee7612ee284611e64565b612ec7565b611e64565b9050919050565b6000819050919050565b612f0683612ed1565b612f1a612f1282612ef3565b848454612e75565b825550505050565b600090565b612f2f612f22565b612f3a818484612efd565b505050565b5b81811015612f5e57612f53600082612f27565b600181019050612f40565b5050565b601f821115612fa357612f7481612e43565b612f7d84612e58565b81016020851015612f8c578190505b612fa0612f9885612e58565b830182612f3f565b50505b505050565b600082821c905092915050565b6000612fc660001984600802612fa8565b1980831691505092915050565b6000612fdf8383612fb5565b9150826002028217905092915050565b612ff882611db2565b67ffffffffffffffff811115613011576130106120ef565b5b61301b825461230c565b613026828285612f62565b600060209050601f8311600181146130595760008415613047578287015190505b6130518582612fd3565b8655506130b9565b601f19841661306786612e43565b60005b8281101561308f5784890151825560018201915060208501945060208101905061306a565b868310156130ac57848901516130a8601f891682612fb5565b8355505b6001600288020188555050505b505050505050565b7f4552433732313a20617070726f766520746f2063616c6c657200000000000000600082015250565b60006130f7601983611dbd565b9150613102826130c1565b602082019050919050565b60006020820190508181036000830152613126816130ea565b9050919050565b7f4552433732313a207472616e7366657220746f206e6f6e20455243373231526560008201527f63656976657220696d706c656d656e7465720000000000000000000000000000602082015250565b6000613189603283611dbd565b91506131948261312d565b604082019050919050565b600060208201905081810360008301526131b88161317c565b9050919050565b600081519050919050565b600082825260208201905092915050565b60006131e6826131bf565b6131f081856131ca565b9350613200818560208601611dce565b61320981611df8565b840191505092915050565b60006080820190506132296000830187611ef9565b6132366020830186611ef9565b6132436040830185611fe2565b818103606083015261325581846131db565b905095945050505050565b60008151905061326f81611d23565b92915050565b60006020828403121561328b5761328a611ced565b5b600061329984828501613260565b91505092915050565b7f4e487b7100000000000000000000000000000000000000000000000000000000600052601260045260246000fdfea2646970667358221220edf58c8dcb1631fbbaf6e423becbdb5c0ecde01b0eb7a6ee625a3556106aa38964736f6c63430008140033",
  "linkReferences": {},
  "deployedLinkReferences": {}
}